:020000040800F2
:1000000000180020C5000008C1000008C100000859
:1000100000000000000000000000000000000000E0
:10002000000000000000000000000000C100000807
:100030000000000000000000C1000008E902000804
:10004000C1000008C1000008C1000008C10000088C
:10005000C1000008C1000008C1000008C10000087C
:10006000C1000008C1000008C1000008C10000086C
:10007000C1000008C1000008C1000008C10000085C
:10008000C10000080000000000000000C1000008DE
:1000900000000000C1000008C1000008C100000805
:1000A00000000000C1000008C1000008C1000008F5
:1000B000C100000800000000C100000805010008A0
:1000C000FEE7000010B500F0FFFA094A094B0A49A3
:1000D0008B4207D30021094B094A934205D300F014
:1000E0004FF8FEE701CA01C3F2E702C3F5E7C046D5
:1000F000A8690008000000207000002070000020A7
:10010000D807002010B5002004F03AFA10BD70B5F1
:100110000500002003F0B6FE00280DD0280005F0F1
:1001200064FF040000F03EF90600002C04D000F04B
:1001300039F9801B312800D970BD22002900002028
:1001400003F0DEFE2D18241A002003F0E5FE012046
:100150000021404203F068FBE7E7000070B5074C60
:100160002578002D09D10120012329004042237068
:1001700003F05AFB00F00EFA257070BDD10000208C
:1001800070B50024DCB000F0DFFA01F09FFF00F052
:10019000BFFD02222E4901A805F01EFF01A9002083
:1001A00002F0A4FC250000F0DBF900F0F3F900F008
:1001B00077FD01200021404203F036FB002003F0D0
:1001C00077FE002823D103F075F8002801D000F055
:1001D00061FD00F0E7F8001BF92804D900F0E2F80F
:1001E000040000F0B3FD01F0C5FA01F071FB002836
:1001F000DBD0002003F046FE0028D6D0B42102A8B0
:10020000490001F083FB02A8FFF781FFCDE76B46B1
:10021000DE1C01223100002003F066FEFF230028CF
:100220000CD033780D2BC9D00A2B07D1094E0A48C0
:100230003378C55401F0FAFC3570BFE705490A78F8
:100240005E2ABBD8501C087003498B54B6E7C046E1
:10025000F85F000870000020710000200122824039
:10026000094B10B500209A620424082299682143A2
:10027000996019682142FCD0196C013A4018002A93
:10028000F4D1C00810BDC0460024014030B510258F
:1002900009490A4B0C689A69104201D0012005E017
:1002A0009A692A4203D03022DA61002030BD0A6800
:1002B000121B0A2AEFD9F8E7D400002000540040AE
:1002C000064B1A69120603D5054A5A60054A5A6058
:1002D0000122D9681142FCD17047C046002002407B
:1002E00023016745AB89EFCD2A4AF8B51368CF21C2
:1002F000013313609022D205136800248B431360EE
:10030000254A1378022B01D00133DCB2234B147041
:100310001B786200DFB20126D3400025334205D0AE
:10032000A019032104F02EFE8E40F5B20321A01C7B
:1003300004F028FE4B000133DF4001231F4225D08B
:100340008B401D43EDB2012215481600035D1400D9
:100350009C4093409E4000232900D94011420BD07D
:10036000C15C0F008C4611001037B9400C43614648
:10037000170049008F403E430133032BECD19023FB
:10038000DB059C611A6832431A6001E0002DDAD166
:10039000F8BDC046D4000020D2000020D3000020C9
:1003A000FA5F0008014B18687047C046D40000206F
:1003B00070B50500044C266823689B1BAB4200D334
:1003C00070BDFFF7CBFEF7E7D40000200123002922
:1003D00004D090228340D205936170471030F8E733
:1003E000034B186901238007C00F58407047C0466F
:1003F00000040048031C642800D964230A22DBB2ED
:100400005343014A5363704700040040014B187086
:100410007047C046D300002010B59024E405226840
:10042000094B05201A4080235B00134323601023EF
:10043000A361FFF7BDFF80235B03A361C023226894
:100440009B001343236010BDFFFCFFFF112010B57C
:10045000FFF704FF054B01001800002904D0044AEF
:100460001088584304F01EFC10BDC046E40C000088
:10047000BAF7FF1F10B5FFF7E9FF04000520FFF7EB
:10048000EDFE0349604304F00DFC0B23584310BDFF
:10049000FF0F0000F0B585B001930AAB05001E7890
:1004A000002A51D07342734140005B06034310049D
:1004B000034380200C00284F800103437B608B188E
:1004C00000930220FFF7E2FE002825D023780134B4
:1004D000BB62009B9C42F4D1002E2DD04020FFF740
:1004E000D5FE002818D000246B0032041B4D1A4F93
:1004F00013431D437D600420FFF7C8FE00280BD086
:100500007B6A019A13550134E3B2B342F3D320203E
:10051000FFF7BCFE002814D101210F4B1A688A4353
:100520001A6000220392039A312A12DD012219680F
:1005300000200A431A600AE02020FFF7A7FEB0421D
:10054000EAD02023FB6101E09642CCD1012005B026
:10055000F0BD039A0132E5E7005400400024000298
:10056000074B084A1A60084A1A6004225A60074A70
:100570009A60DA68002AFCD1054A1A607047C046C2
:1005800000300040CCCC000055550000E2040000D3
:10059000AAAA0000014B024A1A60704700300040CE
:1005A000AAAA000010B50400FFF78AFE02220C4B35
:1005B00019690A431A6140225C6119690A431A6188
:1005C0000122D9681142FCD102211A698A431A61B9
:1005D0003422DA6019694C320A431A6110BDC046F0
:1005E00000200240F7B505000C00561CFFF768FE1E
:1005F000012000210700720853000093104B009A5D
:10060000914206D13422DA6019694C320A431A61E8
:10061000FEBD1E693E431E616E18B4466246665AB0
:100620001680DE683E42FCD162461E69BE431E61F2
:100630001288665A0231B21A564256413040DEE7FD
:100640000020024070B50D0016000400FFF7AAFF5D
:10065000320029002000FFF7C5FF70BDBFF34F8FA8
:10066000034B044ADA60BFF34F8FC046FDE7C04634
:1006700000ED00E00400FA058021084A4904536AAD
:10068000506A0143516203209A0006D40138DA000F
:1006900003D41B01D80F01235840704700100240BB
:1006A000054B064A1A60BFF34F8F054B054ADA60C7
:1006B000BFF34F8FC046FDE7D807002007B007B053
:1006C00000ED00E00400FA050D4B0E4A196810B564
:1006D000914214D100221A60012303200A498A6939
:1006E0001A438A6109490A68824313430B60084B25
:1006F0001B6883F30888074B1B689847FEE710BD0B
:10070000D807002007B007B00010024000000140E9
:1007100000C4FF1F04C4FF1F064B07481B68584353
:10072000064B1A68064B53435840064B1B6858400B
:100730007047C046B0F7FF1FB179379EB4F7FF1F6F
:1007400077CAEB85ACF7FF1F8022724B5202596BC0
:10075000F0B50A435A6380229202596B1142FCD0D1
:1007600011216D4A1160032259680A435A600C2214
:10077000596811400C29FBD18022D8691204024328
:10078000DA618022D86912050243DA61634A64485B
:100790005468644D044080208005204350606020F0
:1007A000146830262043C02410605F4A5F48240646
:1007B00010605F485F4A42602A6A1202120A2243AE
:1007C0002A62002282609446073202608C225869B5
:1007D000D2030243012010245A619A69564D024304
:1007E0009A612A6822432A6090221425D2059562D4
:1007F0001568B543254315601668504D0C3C2E40D6
:100800008025ED0135431560C0251668AD003543E0
:10081000C026156015688D4315601568B5431560D1
:100820001568BD3EB5431560C02517682D013D43D1
:100830001560434D2F688F432F60EF688F43274328
:10084000EF60156A3F4F64462F4080256D043D439D
:10085000156215683C4F2F408025AD013D43156062
:1008600002252F27DA692A43DA61384A9762384F1E
:10087000D762682754639761193710621760354A49
:100880000F34576807435760976837439760176A74
:10089000A7433843106210680134B0432843106006
:1008A000506805435560F025906808439060106AD1
:1008B000A84304431462106888430439014311605B
:1008C0008022996992000A4380219A61224A09068E
:1008D000116190680143916091680029FCDB072158
:1008E000516180211D48C903046821430160012131
:1008F00090680843906010680842FCD08022D86954
:1009000092030243DA610022154B1A60154A1A61FC
:100910001960F0BD0010024000200240006C004051
:10092000FFFFFFCF00ED00E000000020006CDC02C4
:1009300010E000E07FBB000000000140FF3FFFFF30
:1009400000040048FFFFFFF0FFCFFFFF000400405E
:10095000E70300000014004800240140082701407C
:10096000005400400E090020044B1A78044B002A62
:1009700001D098887047988BFCE7C0462D01002075
:100980005C010020064B18885A8881B2914200D23F
:10099000101C9B8882B29A4200D2181C80B2704709
:1009A000FE000020064B18885A8881B2914200D977
:1009B000101C9B8882B29A4200D9181C80B27047E2
:1009C000FE0000200A780368002A02D04268012A4B
:1009D00002DC00221A7070475A1C02600A7801314A
:1009E0001A704368013B4360ECE7F0B50024CB1775
:1009F00089B0CD18019000915D4002AB013B280009
:100A000026000A210134E71804F0D2F93031397098
:100A100028000A2104F046F92F000500092FECD820
:100A2000009B002B05DA2D22B31C02A926000A55D3
:100A30001C00002302AA05A9B6185842305C58547D
:100A400001339C42F9D1002301980B55FFF7BAFFFF
:100A500009B0F0BD70B504000E0015000749FFF79E
:100A6000B1FF31002000FFF7ADFF20000449FFF780
:100A7000A9FF29002000FFF7B8FF70BDFD5F000847
:100A80000060000870B504000E0015000949FFF76A
:100A900099FF31002000FFF795FF20000649FFF77E
:100AA00091FF29002000FFF78DFF20000349FFF789
:100AB00089FF70BDFD5F000803600008FE5F00084D
:100AC00010B50A4C237E012B01D1208910BDA07ED8
:100AD000632801D96088F9E701F086FB63889AB240
:100AE000824200D9031C98B2F0E7C0465C010020A6
:100AF00070B500242500074A6300D05A01F048FB76
:100B000001342D18032CF6D12800210004F0CAF876
:100B1000C0B270BDFE000020962330B5CFB05B00A0
:100B200003AD01A8344902930195FFF74BFF334C05
:100B300001A862883249FFF78DFFA28801A83149D8
:100B4000FFF788FFE28801A82F49FFF783FF22897A
:100B500001A82E49FFF77EFF628901A82C49FFF703
:100B600079FFA28901A82B49FFF774FFE28901A848
:100B70002949FFF76FFF228A01A82849FFF76AFF7A
:100B8000628A01A82649FFF765FF227D01A8254951
:100B9000FFF760FF627D01A82349FFF75BFFA27D9D
:100BA00001A82249FFF756FFE27D01A82049FFF77F
:100BB00051FF227E01A81F49FFF74CFF627E01A86A
:100BC0001D49FFF747FFA27E01A81C49FFF742FF1E
:100BD000E28B01A81A49FFF73DFFA28B01A8194932
:100BE000FFF738FF184901A8FFF7ECFE2800FFF7D0
:100BF0008EFA4FB030BDC046076000085C0100208F
:100C000012600008186000081D60000821600008DC
:100C1000266000082D600008346000083860000875
:100C20003C60000841600008476000084C60000814
:100C30005060000854600008596000085D600008BA
:100C400061600008666000086B600008602330B5D2
:100C50009BB002AC0D0000940A490193002800D01B
:100C600009496846FFF7AEFE2A0068460749FFF7C4
:100C700009FF68460649FFF7A5FE2000FFF747FA7F
:100C80001BB030BD786000086E600008D2600008BC
:100C90006B6000080122014B1A7070472701002089
:100CA000154B70B51B78154D002B06D1144B1B78D6
:100CB000002B02D100232B7070BDFFF7DBFB114B23
:100CC00004009842F6D92B780133DBB2022BF2D91B
:100CD0000026022031002E70FFF778FB084B1E70B3
:100CE000094B1E6080235B029C4200D3074C0A2004
:100CF000A1B201F015FBDFE732010020D80000208F
:100D0000260100206842000020010020FFFF0000B3
:100D100010B501210720FFF759FB01F08FFAFFF70B
:100D2000ABFC032803D100211F3001F0B1FA01F020
:100D3000D3FB044B187001F0D9FCFFF733FB024BD7
:100D4000186010BD31010020E8000020F0B587B028
:100D5000FFF728FB0190FFF78DFBFA22BA4B80B218
:100D60000493188012010023904209D3B74B9A894B
:100D70000123824204D8B64B83429B415B4202333B
:100D8000B44A1370B44B03921800029301F000FDB3
:100D900000280FD1B14C019A2368D31AB04A93426C
:100DA00008D901F0A3FC011E02D1232001F0B8FAFA
:100DB000019B2360AB4C2378002B06D0AA4801F09E
:100DC000CFFB00280AD1207008E0039B1B78002B82
:100DD00004D001F081FB20700028EFD1A34C019AD0
:100DE0002368D31AFA229200934203D901F0AAFB96
:100DF000019B2360029B9E4D1B78002B3FD18033CB
:100E00002B80039B974A9A4E1B7812783088002BD0
:100E100000D1AAE0002A00D0AAE08022920002437A
:100E200032803288012B00D0B4E0FF33134333808B
:100E300032880025100001278E4B8F4C19881A80AC
:100E4000884304402300EB403B4200D1B5E0EBB2C5
:100E50000593042D00D1E0E03800A840102800D907
:100E60009EE00021082800D9A4E00138072800D915
:100E70009CE003F0F9FE9DC29BC69B9B9BC97F4BE8
:100E80001C78002C5AD1029B0622991C7C4805F044
:100E9000A3F87C4B1C707C4B019A1A6000232B80BA
:100EA000FFF770FD0400FFF77DFD029A774B128972
:100EB0009A4201D801232B80754B9C4215D8634B75
:100EC0005B883233A34210DB029B9A885B8899B21D
:100ED000914200D2131C604A99B2D288914200D24A
:100EE000131C6C4A9BB2934204D90223604A1188B6
:100EF0000B431380684A5E4B904205D81988CA0795
:100F000002D404220A431A80504A241AD2899442F5
:100F100005DD1988CA0702D408220A431A804B4803
:100F2000029B447D0A2060430A229B5E504A11883E
:100F3000834213DD10230B43138062E7514A137879
:100F4000002BABD0013BDBB21370002BA6D1029B70
:100F50000622991C4A4805F03FF89CE74F489BB28F
:100F6000834200D84DE72023E5E79A4200D15FE7AE
:100F70003D494B4C0A8A144202D04022024332803F
:100F8000484A0C20095E914200DC4AE71022318871
:100F90000A4345E7032B00D04AE78023DB0045E7FF
:100FA000062D49D00A2D4BD0052D42D0002101E05D
:100FB000294B1989E8B201F0B3F90135102D00D0A1
:100FC00040E7039B384A1B78384C022B70D11368DA
:100FD000002B04D1019B002B00D101231360227848
:100FE000002A68D1019AD31A184AD18BFA229200AA
:100FF0004A4393425FD301235CE0FFF7C3FC010047
:10100000D8E7FFF7CFFCFAE7FFF7BCFC0590FFF746
:10101000C9FC059B191A89B2CCE70A220E4B0A219A
:10102000595E0A4B5B7D53439942F4DC0E4B998920
:10103000C0E7094B5989BDE70B4B198A49BAEAE762
:10104000049B1988B6E7C046340100205C010020EB
:1010500068420000390100203A010020E800002029
:10106000B80B00003101002048010020E000002002
:10107000360100201C010020FFFEFFFF320100208E
:10108000FE000020FC000020F80000206F17000088
:101090009A100000CC100000C309000070FE000090
:1010A000FFC400004C0400002001002026010020A5
:1010B000002313602370FFF703FD039B22780700D2
:1010C0001B787D4C002A75D0022B77D17B4B0025F5
:1010D0001B7E022B04D03388794D1D406B425D414D
:1010E000FFF77EF9774B26881870FFF73DFC002E3E
:1010F00001D0864200D92080002D64D10026039BB8
:101100001878012801D101F015FA002E00D105E16F
:101110006D4B1B78002B2CD06C4B1B78002B28D1EF
:10112000FFF730FC3230B84200DAC3E0FA2109019F
:101130003D00674B67481A683B35019B03959A1A37
:10114000438884889DB2A54200D2231CC0889CB2EB
:10115000844200D2031C03989BB2984200DBF4E265
:10116000914203D9FA239B009A4202D30322574BA0
:101170001A700325002001F0DDF97D434E4BADB21E
:101180001C88002C02D1FFF7EFFB0400524B4B4FA1
:1011900003931B88AB4200D1ACE021002800FA8801
:1011A00001F046F9002800D076E1FFF7FBF84B4B41
:1011B0001860B3E0022B01D1002591E70022484BD3
:1011C00022801A70F8E7434B01261B78002B96D03B
:1011D000FFF7D8FB0500FFF7E5FB3B000933414A69
:1011E0000490AB4209DA322316702380BB1C9D4267
:1011F00006DC00223B4B1A7002E01378002BF5D17D
:10120000394A01991368CB1AFA21C9008B4217D3C6
:10121000019B13602C4B1B78002B26D02B00143322
:101220009F4222DC254A049B127DEB1A93421CDD6F
:101230000323228853439A08C72B00D832222280E6
:101240001E4B274A1B7E002B20D1049919318F4257
:101250001CDC1D490978994204D024490A20095E02
:10126000952913DC0123137048E73C35AF42E7DDD5
:10127000FFF77AFB23889842E2D91A006332824250
:1012800001DA643318000C4B1880D9E70026127875
:10129000B24204D1134A117801224A40D6B2012B3E
:1012A00000D02CE73A000499143A914200DB002365
:1012B0001E4024E70E493BE72E0100205C01002080
:1012C000FF0600002D01002032010020FC0000205C
:1012D000F80000203A010020DE000020EC00002091
:1012E0002C010020300100202801002048010020AE
:1012F00010270000C34B1B88A34200D04DE7C24B10
:101300001A88FB889A4200D047E7FFF74BF8BF4B9B
:101310001B68C01ABE4B984200D93EE7BD4B0393F1
:101320001B78B34202D0300001F0CEF800218E428B
:1013300004D0B94B19784B425941C9B20220FFF78A
:1013400045F8039BB54A01991E701368CB1AFA2120
:10135000C9008B4238D9019BB14D1360EC7D002C44
:1013600023D00024AF4B1B78A3421ED09122AE4B5A
:101370001B881A4219D1FFF715FB2E7E0700012E9C
:1013800000D091E0A94B1B78A34200D18CE02B89BF
:101390001433984200DC87E0FA210198C90003F079
:1013A00081FC0534304200D1033CA14D2B78A3428F
:1013B00006D19C4B1A78002A06D05B7BA34203D04F
:1013C000200001F0E9FA2C709A4B1C68002C01D027
:1013D000019A141B019A8F4D1A602B78002B31D083
:1013E000954B1A78002A10D1029A20200A21525EC9
:1013F00001211970914B01991960029B1989904B39
:101400001980904B1A8000F043FF8F4E0A23F05E44
:10141000002808DDFA216043890003F043FC8B4F6C
:101420003B68C01838607F4B0A229A5E854B0020CB
:10143000195E914200DA1A80B37B072B02D1012298
:10144000834B1A707C4C834E2378002B56D0824BF2
:101450001B78002B02D001227D4B1A70704B1B7E33
:10146000012B4BD12A78002A4BD16F4A7B49128835
:10147000114205D16D4A1278002A01D0744A1370C6
:101480003378002B3DD0684B1988744B194238D003
:10149000242000F045FF34E0039B1D80594B1C8045
:1014A000FA88594B1A8080E6FFF76CFA6B890024A2
:1014B000834200D379E72D7DC01BA84200DC74E78E
:1014C000674C60882188A28881429B415B425B0017
:1014D0001B5B93420ED30224814200D265E70221B6
:1014E000013C7D19AA4200DC5FE701238B401C43CD
:1014F000E4B25AE70A0004240021F2E72B78002B1B
:10150000BED0039B574A1B7812783370564D574E06
:10151000002A5FD1336801322A70002B00D108E124
:101520002378002B2ED0524B1A78002A2AD1013270
:101530001A70474B26201B78002B00D00538029BE1
:10154000198900F0A5FE3E4B2A20198800F0A0FE64
:10155000E1213E4B0901186803F0A4FB81B227206A
:1015600000F096FE354B43491868019B181A03F0AA
:1015700099FB81B2282000F08BFE324B292019887C
:1015800000F086FE264B019A597E3368D31A002953
:1015900000D1D4E0264A1278002A00D1CFE0354AA3
:1015A0004A439A4200D9CEE000210220FEF70EFF06
:1015B000002001F0F1F901F004FA00F0CAFF002068
:1015C000FEF718FF0020FEF721FF00210720FEF79D
:1015D000FDFEFEE7144921480988084204D00C2387
:1015E0002B7000233360AEE0012A47D1224B1A78DA
:1015F0000D23002AF4D10E4B1A780223002AEFD0D3
:101600000733EDE7DC000020DA000020EC000020CA
:101610008813000032010020FC000020F0000020B0
:101620005C0100203A010020360100202601002044
:10163000040100200C0100201A01002014010020E8
:1016400008010020060100204801002010010020B0
:1016500019010020240100202C010020FF060000B9
:10166000FE0000203901002038010020F400002095
:101670001801002060EA000027010020354A177E8B
:10168000354A1278002A09D10E23022FA8D1334BF4
:101690001A783B00002AA3D00923A1E7022FF6D035
:1016A000002B2ED02E4B987B013806281FD803F034
:1016B000DBFA202004141E16180005242C70FFF7F6
:1016C00053F9284B1B88834215D2082C89D00F234D
:1016D0002B70012F85D10A2382E70624EEE7072429
:1016E000ECE71E4B1C78631E9C410834E6E703249C
:1016F000E4E70424E2E7012F00D072E7082CEAD1E6
:101700006FE7194B1B78002B05D0184B1B78002B6B
:1017100001D10F3364E7114B1B78012F03D1002B4C
:1017200005D00B235CE75A1E9341083358E7082382
:1017300056E7019B002B00D113003360F0E60C4A02
:10174000934200D930E707B0F0BD914200D910E5CF
:101750000CE5C0465C0100202601002004010020A9
:10176000480100202E010020300100202C01002023
:10177000DC050000F0B585B0FEF714FE4D4F060005
:1017800038784D4D0238AC7D0D2849D803F06CFAFD
:101790004A4A2B2B2B2B0E3F2B3F074A522B7D21E6
:1017A000300003F07FFAC007C0170440E0B2FEF734
:1017B00021FE424B00241B78022B0FD12B7E022BE3
:1017C0000CD03B780E2B09D00C2B3FD1FA213000E6
:1017D00003F068FAC0071534C01704402000FEF774
:1017E00015FE05B0F0BDFA213000C90003F0E0FAA3
:1017F000FA239B00994202D3FA23DB00591A2000F6
:101800004843FA21890003F04DFA0400CEE7300086
:101810002B4903F0CDFA6329C8D9FB396229C5D910
:101820000024C3E7FA213000C90003F0C1FA4F29B0
:10183000BCD9F5E7FA213000890003F0B9FAFA23A0
:101840005B009942ECD203212000DCE71D4B1B78A2
:10185000002BC3D0FFF734F922001B4B1B491B7828
:1018600001932B7E0293C30F0393019D0123002D4F
:1018700005D100230D88039E193585427341029DD1
:10188000012D0CD10E88002335001935854206DB69
:1018900005001435EB17F70FB5425F413B000125FA
:1018A000D3189D4002322C43E4B20231062ADCD127
:1018B00094E7C046380100205C0100203901002077
:1018C000DC0500003A0100202C010020FE00002071
:1018D00070B50B4E0B4D3478002C07D000233370BD
:1018E000FEF760FD01242860200070BDFEF75AFD60
:1018F0002B68C01A044B5B8A9842F5D3EEE7C046CA
:1019000025010020E40000205C010020F0B585B036
:101910000290039102A89449FFF754F8934A944B1C
:101920000192127893499200D25802A8FFF7AAF8C0
:10193000914D924B2A7E92499200D25802A8FFF70D
:10194000A1F8904A904B127890499200D25802A880
:10195000FFF798F88E4B8F491A8802A8FFF77AF89C
:1019600000228D4F3C78944202D08C4B08229A5E24
:101970008B4902A8FFF76EF88A4E3278002A21D0F0
:101980003289894902A8FFF765F80022944202D003
:10199000824B0A229A5E854902A8FFF75BF88449C8
:1019A00002A8FFF70FF80024824A6300D15A02A868
:1019B0000134FFF71AF8032C09D07F4902A8FFF77A
:1019C00001F8F1E79442DCD0744B9A88D9E77B495F
:1019D00002A8FEF7F7FF7A4902A8FEF7F3FF0024FA
:1019E000744A6300D05A00F0D3FB0134010002A80E
:1019F000FEF7FBFF032C04D06F4902A8FEF7E2FFBD
:101A0000EEE76E4902A8FEF7DDFFFFF771F86D49BA
:101A1000020002A8FFF71EF80A23F25E6A4902A834
:101A2000FFF718F800223B78934202D05B4B0C2260
:101A30009A5E664902A8FFF70DF8654B65491A786A
:101A400002A8FFF707F8644B64491A8802A8FFF759
:101A500001F8634E6349347802A82200FEF7FAFFCA
:101A6000002C00D179E04D4C0A22A35E322B00DC21
:101A700073E0FFF73DF864210B1A288A584303F0FE
:101A80009BF93C2358430A23E15E03F095F9019B3F
:101A90001A780F23062A00D1053BC218524902A822
:101AA000FEF7D8FF514B52491A7802A8FEF7D2FF31
:101AB000504B1C78002C53D14F4F3B68A3424FD062
:101AC000FA23ED8B9B005D43FEF76CFC3B68220024
:101AD000C11A8D4208D9FA21484A89009B185B191E
:101AE000181A03F0DFF80200454902A8FEF7B2FF1A
:101AF000FEF7E6FF4349020002A8FEF7ABFF00F045
:101B000023FC4149020002A8FEF7A4FF002233781B
:101B1000934201D03D4B1A8802A83D49FEF79AFF37
:101B20003C4B02A81A783C49FEF794FF3B4B3C49DA
:101B30001A7802A8FEF78EFFFEF734FCFA2189001E
:101B400003F0B0F83749020002A8FEF783FF3649D8
:101B500002A8FEF737FF05B0F0BD012252429DE713
:101B600001225242C0E7C0468360000838010020CD
:101B7000AC620008E46000085C010020906200088C
:101B80008C600008390100209C6200088F6000080A
:101B9000340100209360000831010020480100203A
:101BA000986000083A0100209D600008A2600008CB
:101BB000A7600008FE000020AE600008B0600008CA
:101BC000B2600008B9600008BD600008C06000088D
:101BD000040100205060000836010020C3600008A6
:101BE0003201002019600008C760000827010020AA
:101BF000CB6000082601002020010020E703000040
:101C0000D06000085D600008D46000082E0100204C
:101C1000D96000082C010020DD6000082D010020A3
:101C2000E2600008E76000086B600008F0B504009F
:101C3000AFB02378202B0ED0002B0AD00126A74B63
:101C40002000A7491E7004F0BDF9002805D1A54B5E
:101C50001E702FB0F0BD0134EBE72000A24904F064
:101C6000B1F9002802D1FEF757FFF2E720009F49A3
:101C700004F0A8F900283CD1A02306AC02930194FB
:101C80000F26FEF749FD1C23994D03AA0100D940F8
:101C90003140695C043B11700132191DF6D10023FB
:101CA0006A469449137501A8FEF78CFE924A93493F
:101CB00001A8FEF7E7FE924A924901A8FEF7E2FE6C
:101CC000914903AA01A8FEF7DDFE904B90491A78CE
:101CD00001A8FEF7BFFE8F4B8F491A7801A8FEF7C7
:101CE000B9FE01A88D49FEF76DFE2000FEF70FFA40
:101CF000AFE7042220008A4904F04CF9051E1CD1EC
:101D000004342021200004F037F98649A8421DD070
:101D1000290005700A22013004F01AF901002000A0
:101D200000F00CFA051E00D17F4C21002800FEF7C0
:101D30008DFF002D00D18CE795E720007B4904F052
:101D400041F9002805D100F0E5F97849FEF77EFF5A
:101D50007FE72000764904F035F9002806D100F02D
:101D600075F930007249FEF771FF7CE7052220000B
:101D7000704904F00FF900281FD105346E49200086
:101D800004F020F9431E98416C494542200004F0BC
:101D900019F9002800D101252000694904F012F941
:101DA000002808D067496B1C00D195E0664B2100E4
:101DB00001201D76D7E70225F8E72000634904F0EB
:101DC00001F900280DD161490130FEF73FFF3220B3
:101DD000FEF7EEFA00210220FEF7F8FAFEF760FCAB
:101DE00037E720005A4904F0EDF8002809D1584996
:101DF0000130FEF72BFF3220FEF7DAFAFEF72EFC59
:101E000027E72000534904F0DDF8002806D1524BA3
:101E10005249187843425841C0B297E720005049D0
:101E200004F0D0F800284BD10400502728E020000F
:101E300000F090FA06004B4903A803950497FEF7BB
:101E4000C1FD3288484903A8FEF704FE728847495D
:101E500003A8FEF7FFFD3279454903A8FEF7FAFD16
:101E6000F288444903A8FEF7F5FD2C4903A8FEF7C4
:101E7000A9FD2800FEF74BF9FEF78CFB0134A4B254
:101E800000F062FA06AD8442D1D350233A4903A848
:101E900004930395FEF796FD00F056FA37490200C9
:101EA00003A8FEF7D7FD00F063FA3549020003A846
:101EB000FEF7D0FD03A81949FEF784FD280015E7B9
:101EC0002000304904F07EF8002804D100F056FAD2
:101ED00001202D493AE72D49002037E7270100204E
:101EE000F860000825010020FB600008FE60000883
:101EF0007E620008016100080A61000810610008A4
:101F000013610008186100081B61000831010020FE
:101F1000196000083A0100201F6100086B6000088A
:101F20002361000828610008EA6000083D6100089C
:101F3000426100084B6100085161000858610008C7
:101F400060610008686100085C0100206E610008A3
:101F50007261000879610008390100207E61000883
:101F60009A6100089F6100083660000869600008F7
:101F7000BB600008AA610008AC610008D7600008D7
:101F800074610008BA610008C1610008CD610008F1
:101F90000300F7B5254AFF2494462033010001933E
:101FA0002348244B0A78654653401A00A343224035
:101FB0001B0A12021A4313002A4003401B01120994
:101FC0001A431D4F1D4B1E4E13403A4092089B0072
:101FD00013431C4A01311A4033405B0855001D432E
:101FE0002A0A194B52009B5A2D026B401A00A34338
:101FF00022409BB212021B0A13431A00654602409C
:102000002B4012011B0913430C4A1A403B4092001B
:102010009B0813430B4A1A40334052005B0813439A
:10202000019A9142BED11800FEBDC046F0F0FFFFFC
:102030000F0F0000FFFF0000CCCCFFFF3333000088
:10204000AAAAFFFF55550000546400080A2210B5E3
:102050000021144803F088FF134B144A1A80144AD5
:102060005A80AF22D2009A80124ADA80124A1A812C
:10207000124A5A81124A9A8196225200DA81114AF2
:102080001A82FA2252005A820F4A9A8294225200ED
:10209000DA82C43A9A765F3ADA83AF2292009A8360
:1020A00010BDC046740100205C01002060A1FFFF4C
:1020B00068100000DC050000D80E00003C0F000096
:1020C000E02E0000AA0500000F2D000070B50E4C98
:1020D000637822781B0213430C4A934210D1A21C4E
:1020E000D57F631CDB7F2D0220001D43FFF750FFCF
:1020F000854205D122222100054803F06DFF70BD05
:10210000FFF7A4FFFBE7C046007C000860A10000C9
:102110005C01002010B5064C064B20002380FFF721
:1021200037FF2222208421000348FEF78BFA10BDDE
:102130005C01002060A1FFFF007C0008F7B50E00E5
:1021400000251427114B019000933C006C43009B29
:102150000198E418216803F035FF00280FD1E268E8
:102160000300B2420FDC2269B2420CDB227A6368C0
:10217000022A02D11E80012305E01E70FBE7013513
:10218000122DE2D100231800FEBDC046EC6200080B
:10219000114A002370B5904217D9104A6433904217
:1021A00013D80F4A633B5900515A81420FD35C1E2A
:1021B0006500AA5A0B4D801A2C5DEB5C891A1B1B1B
:1021C000584302F06FFD2318DBB2180070BD0133D5
:1021D0000E2BE8D15633F8E7E40C0000671000003E
:1021E000626600085466000870B500281BD063289A
:1021F00017D801230D4AD15C81420FD35C1E155DB7
:102200000B4A64005B00A45A9B5A401B1B1B58439B
:10221000491B02F047FD201880B270BD01330E2B20
:10222000E9D10448F9E70448F7E7C04654660008D6
:102230006266000868100000E40C00000022100034
:1022400013000F4970B50F4D0F4E0A80802A0AD136
:10225000002800D00A8001339BB2B34200D1012391
:102260000A4A138070BD2C88B442F1D0013208357F
:10227000181CA34200D2201C83B20120E6E7C0460E
:102280008A03002000780008FFFF00008803002078
:10229000F0B51C4D85B02B8807001B4E01917F2B9C
:1022A0000DD9802219499200194803F095FE802229
:1022B000300017499200FEF7C5F940232B80FEF746
:1022C00071F8144B02AC1B882380134B984217D82B
:1022D000FA21890002F0E6FC00236371019B608013
:1022E000E3802B880822DB002100F0182771FEF71D
:1022F00079F9002802D02B8801332B8005B0F0BD7E
:102300000648E9E78A03002000780008007A000800
:102310007E0100208803002017FCE703FEFF000079
:1023200001221F2370B5150003409D40430913404F
:10233000044C9B001A59154203D12A431A51FFF746
:10234000A7FF70BD80030020014B18887047C0466E
:102350008A030020044A0300128800209A4202D90E
:102360000248DB00181870478A0300200078000834
:10237000014B18887047C0468803002010B50548F7
:10238000FEF710F90021044B25201980FFF780FF8C
:1023900010BDC046007800088A0300201FB50B005E
:1023A0000F2101226944087000926B20FEF772F839
:1023B00005B000BDF0B50B2685B06E440F003100AE
:1023C00005001400FFF7EAFF00280BD0337803A9BB
:1023D000BB431C4300230D704C7002226B20009302
:1023E000FEF758F805B0F0BD1FB50B0003A98B70C0
:1023F0001A0A002308704A706B2003220093FEF72C
:1024000049F805B000BD30B50C000F21022387B09C
:10241000694405AD0870012200936B202B00FEF784
:1024200039F8002802D02B885BBA238007B030BD72
:1024300070B51400204A0E00031C904200D9131CF2
:102440001E4A99B2914200D2131C0A2198B202F09E
:1024500029FC81B20120FFF7C7FF194A0500301C93
:1024600096421FD9101C0A2180B202F01BFC81B2D7
:102470000320FFF7B9FF134A0540201C944216D9E8
:10248000101C0A2180B202F00DFC81B20620FFF779
:10249000ABFF1022054030211000FFF78BFF2840D2
:1024A000C0B270BDB2B2322ADDD23220DBE7A2B2B6
:1024B000642AE6D26420E4E7C83200001027000056
:1024C000B80B0000E40C000010B5420124210F20DD
:1024D000D2B2FFF76FFF10BD30B50B2585B06D444C
:1024E00029004820FFF75AFF041E1CD038232A7801
:1024F0001340182B1AD100224E211120FFF75AFF4A
:1025000000256A460A4B03A993816B202B00022207
:102510000095FDF7BFFF102230211000FFF74AFFA2
:102520002800FFF7D1FF200005B030BD0024FAE7F6
:102530002EA0FFFF10B5820004210F20D2B2FFF7BA
:1025400039FF10BD10B5082200211020FFF732FF1F
:1025500010BD10B5022206211120FFF72BFF10BD80
:10256000F7B56B469F1C040039001C20FFF716FFCF
:10257000051E207050D06B46DE1C31001F20FFF777
:102580000DFF01A92020FFF709FF6B462120591DEF
:10259000FFF704FF3B7835205A09DB061B0FE37376
:1025A0003378A273A3746B461B7923746B465B79F3
:1025B00063746B469E1D3100FFF725FF002801D094
:1025C0003388638031003B20FFF71DFF002801D0D6
:1025D0003388A38031003D20FFF715FF002801D08C
:1025E0003388E38031003120FFF70DFF002801D050
:1025F0003388238131003320FFF705FF002801D005
:102600003388638131004120FFF7FDFE002803D0AD
:10261000052332885343A3812800FEBD024B484066
:10262000185CC0B27047C0467E66000830B5050031
:102630000C0085B010210020FFF7F0FF2900FFF704
:10264000EDFF2100FFF7EAFF002303A988700D705A
:102650004C70032200930820FDF71CFF05B030BD2D
:10266000F0B50E000F2189B002ABC9185300DBB2E0
:1026700006AD08701700009301222B000820FDF71B
:1026800009FF041E1DD02B78112100200393FFF7B2
:10269000C5FF0399FFF7C2FF6B78834211D1AB7876
:1026A0000493039B3370022F08D100200499FFF795
:1026B000B5FFEB78834204D1049B7370200009B00E
:1026C000F0BD0024FAE737B501AC0D00022221006D
:1026D000FFF7C6FF002807D0FC22237892011B02D7
:1026E0001340627813432B803EBD000073B5FDF7A5
:1026F00093FE96204000FDF75BFE19210B20FFF7AB
:1027000095FF002836D018210420FFF78FFF002105
:102710000520FFF78BFFFF210020FFF787FF6B46A7
:102720005E1D012231005020FFF79AFF00281FD0C4
:102730006B469D1D012229005920FFF791FF0028BB
:1027400016D06B46DC1D012221005120FFF788FFC7
:1027500000280DD0182332780B4952001A402B78EC
:102760005B0913436E33FF3322780B80074B1A70DB
:10277000012008E06420FDF71BFE19210B20FFF764
:1027800055FF0028BFD176BD040000208C03002037
:10279000F0B587B002AB9D1D040001222900002086
:1027A000FFF75EFF207000280FD020212B782373C5
:1027B0000B4202D00020FFF739FF0C2004A9FFF7DD
:1027C00082FF002805D1002323700025280007B0D0
:1027D000F0BD0A2302AA0E209918FFF774FF002803
:1027E000F1D0142005A9FFF76EFF051EEBD00027DE
:1027F000FA215C4B89001E885B4BDF5702AB1889BE
:10280000704302F0D9FAC019C343FA21DB1718400C
:1028100002AB0190608058898900704302F0CCFAC5
:10282000C019C343FA21DB17184002AB0090A08007
:1028300098898900704302F0BFFAC019C3430E267D
:10284000DB171840009A019BE0809B18C01802AB70
:10285000F618208131002C20FFF735FF00286BD0BF
:10286000BF20338840005843404B421E9A4276D8DE
:1028700003F084FA3E49061C02F0CCFE311C071C12
:102880003C4803F011F8011C381C02F0ADFD38493A
:1028900002F0AAFDFE218905061C03F005F8FE21C1
:1028A000071C8905301C02F073FB011C381C02F068
:1028B0009BFD011C061C02F0ADFE011C071C02F072
:1028C000A9FE2D490090381C02F08EFDFE218905DD
:1028D00002F05EFB29490190009802F085FD011C81
:1028E000019802F055FB00990190381C02F092FE0D
:1028F000234902F079FD011C019802F049FB311CCB
:10290000071C301C02F044FB011C381C02F082FE44
:102910001C4902F069FD1C4902F03AFB011CFE2033
:10292000800502F061FD194902F0BEFF184902F06E
:1029300071FE03F003FA6081012202ABDE1D31005B
:102940001000FFF78DFE002800D13FE70421327808
:1029500093080B4001390A401343637336E70D486F
:10296000E9E7C046040000208C0300209E5A320094
:1029700000401C46806A494A000040400000A040D8
:102980000000E04000B056450FCF5B3B33938843D7
:102990000000204119FCFFFFC34310B59B070BD17A
:1029A000022398431023810019400D3B1840014336
:1029B0000120FFF73BFE10BD06230340062BF1D19B
:1029C000EEE710B500210120FFF730FE01210420C1
:1029D000FFF72CFE022104000420FFF727FE204011
:1029E000C0B210BD00487047EF670008004870474C
:1029F000A4670008030070B500280CD11C4B1D4AC9
:102A00005A800123C0220133DBB219485B009200D7
:102A10001343038070BD032810D1FDF77DFE0F2501
:102A20001C23154A154C0100D9402940615C043B28
:102A300011800232191DF6D10C33E3E70020042B7C
:102A4000E8D80F4A9B009C58200003F0CEFA031CE4
:102A5000C0B2202800D920232000DBB2044AE118AC
:102A60008842CFD00478023201301480F8E7C046A3
:102A70008E03002009040000900300207E670008F8
:102A80009067000810B581780300081E06D000206A
:102A90005A78824202D1187800F098FD10BD73B5C3
:102AA0000024427805000B00A2420AD18268A9786E
:102AB0000078A24207D12A0000940C3200F046FEB2
:102AC0000400200076BD1D006E1EB5416D422A40F7
:102AD000009400F0B1FDF3E710B54378002B03D16B
:102AE0008178007800F082FD10BD00000A0013B567
:102AF00000290CD16B460124100001A99C8000F034
:102B0000E9FB031E01D00A4A1470180016BD002309
:102B10000128FAD809789942F7D0054B19540123B6
:102B20009942F2D1110000F0D5FB0300EDE7C04659
:102B3000D003002010B501780D220C0003001440D2
:102B40000020114208D119782000114204D101203F
:102B50001978093A0A431A7010BD0523017802005A
:102B600019400B1F58424341D8B2042902D11378AF
:102B70008B4313707047F7B508AC0AAD27782E88E1
:102B8000099C0193A619B44222D225786519AE4258
:102B90001ED36578052D0CD1A5782B000F251D407F
:102BA000BD4213D26D00DB094D19E8542578641934
:102BB000E9E7042DFAD1E578002DF7D1A3789C46FA
:102BC000019B9C4502D26346D054EFE70020FEBD36
:102BD0000120FCE770B504AA0D0002CA04001288A7
:102BE000081E0AD00020824207D0200065700C30F9
:102BF00000F0F9F80120069BA36070BD70B5828AD1
:102C0000C38A04009A4201D0002070BD0029FBD085
:102C10000D008388013B1D401942F5D1FFF732FFBB
:102C20000028F1D029002000FFF739FFEDE770B54B
:102C30000400858AC28A218AABB290B2954228DB11
:102C40001B1A9BB20A1C994200D91A1C92B2002A84
:102C500032D02000FFF716FF00282DD0A1680029F0
:102C60001FD1A58AE18A228AABB288B28D4214DBD9
:102C70001B1A9BB2151C9A4200D91D1CADB2002D27
:102C800017D029002000FFF70AFF002814D02800E1
:102C900070BD4A00121A9B18D3E75100091A5B183D
:102CA000E7E720000023E2880C3000F083F90500FC
:102CB000E5E72000FFF710FF0020E9E770B5050009
:102CC000101E22D080235B029A4200D3114882B2A8
:102CD000280000230C3000F082F9AE8AE98A040053
:102CE0002A8AB3B288B28E4210DB1B1A9BB2A88824
:102CF000111C9A4200D9191C89B2814201D290421A
:102D000002D92800FFF793FF200070BD5100091A77
:102D10005B18EBE7FFFF000070B50400858AC18AED
:102D2000228AABB288B28D422EDB1B1A9BB20021E5
:102D30009A4201D9D21A91B2A3888B422FD820008F
:102D4000FFF7A0FE00282AD0A58AE18A228AABB22A
:102D500088B28D421CDB1B1A9BB200219A4201D91A
:102D6000D21A91B2A3888B4216D85B42E2880B40FC
:102D70001D1C934200D9151C2000A9B2FFF78FFE3D
:102D800000280CD0A8B270BD5100091A5B18CDE71D
:102D90005100091A5B18DFE72000FFF79DFE0020B5
:102DA000F1E70000802370B55B0204009A4200D373
:102DB000064A2000002392B20C3000F0FBF8050018
:102DC0002000FFF7A9FF280070BDC046FFFF0000EC
:102DD0008A1892B24000914201D8824201DB121A55
:102DE00092B21000704770B58026002504003602AC
:102DF0002800B24205D865812160A280A371258197
:102E0000013070BD002343810381704783798B4279
:102E100000D08171704737B504000220002B00D02C
:102E200018788D1806E04B780A781B02134323802C
:102E3000091802346A1A92B29042F4D9002A07D0D3
:102E4000002301AD2800019303F0C6F82B882380EE
:102E500037BD37B504000225002B00D01D780800CF
:102E6000891805E02388023403701B0A4370401957
:102E70000A1A92B29542F5D9002A04D0238801A9F2
:102E80000B8003F0A9F837BDF0B5070089B00D003D
:102E90000EA90888B9881C1AA4B2834202DA4E002F
:102EA000A419A4B2002C22D0A14205D2994221D863
:102EB0005B1A0C0098B27881231C944200D9131C31
:102EC0009CB2814218D90E1A611A41188BB2019333
:102ED0003B68B6B202931B1803930F9B002B58D08C
:102EE000B4420CD8220028000399FFF794FF200079
:102EF00009B0F0BDCB18DCE7401A80B2E1E70F9BC8
:102F000028001F7803997B4233400493049A0F9B57
:102F1000FFF781FF049B7A1E3240EB18D2B21800F3
:102F20000593002A29D0BF1A019B3D1CBFB29F42C6
:102F300001D96B469D880023039E0499EFB2761851
:102F400007A8F15C19540133D9B29142F9D3002397
:102F500007A98918D8B2B84216D3EDB20F9B0598CD
:102F6000521907A9FFF757FF019B05985B1B9BB2FE
:102F70000193029B02305B190293019B002BB6D098
:102F80000F9B019A0299B0E70298C05CC8540133C4
:102F9000E0E7B44205D822002800039903F01CF8AA
:102FA000A5E732000399280003F016F83968019A62
:102FB000A819F3E737B504001D00038940899BB2C7
:102FC000019500902000FFF75FFF050061892A004E
:102FD000A08889B2FFF7FCFE608128003EBDF0B5F5
:102FE0008BB007000E00141E039337D003899BB2E9
:102FF000019341898379858889B2002B36D1019B61
:103000008B422EDB591A89B2A94200D3B3E0691A68
:103010000B1C89B2A14200D9231C9CB2019BAB427C
:1030200045D2EA1A651B92B25D190492AAB20292C5
:103030003A68D3180593039B002B00D188E0049BCA
:103040009C4237D822003000039B0599FFF701FF0F
:103050002200B8880199FFF7BBFE388120000BB031
:10306000F0BD6B00591A019B5918CCE7AA420AD34C
:10307000039B002B01D1541B36190024A542EDD02F
:103080002C000191CAE7019B6A008B420BDB5B1AA3
:103090009BB21B199342C1DB2A1B280092B2FFF797
:1030A00097FE0190BAE70198531AC318F0E75B1B2B
:1030B0009BB2B4E7039B049A1D7830006B421A4020
:1030C0000599039B0792FFF7C4FE079B049AF31828
:1030D00006936B1E1A40D6B2002E37D0AD1B029A53
:1030E0002B1CADB2954201D96B461B89DAB2DDB219
:1030F0000492039B721909A90698FFF7AAFE069B82
:10310000059A0233069300230799521809A9C95C4E
:10311000D1540133D9B2B142F8D3002309AA92198C
:10312000049ED8B2396886420CD8029B49195B1BB1
:103130009BB20293029B002B00D189E7039B029A6A
:10314000069883E7D05CC8540133E9E73968F1E7B2
:10315000049B9C4205D822003100059802F03CFFF8
:1031600076E73100049A059802F036FF049B386830
:10317000029AF118F2E7002470E770B506894289D7
:103180008488B5B293B2964211DBEA1A92B29442A5
:1031900005D2AC420FD822002B1B9BB24381002AE0
:1031A0001AD10A800A814A600020C86070BD62009E
:1031B000D21AAA18EAE7220063199BB243819C4203
:1031C0000DD90068C6184E60AB420BD200230A80AE
:1031D0000B81E9E72D1BADB2AC42FBD9EFE71B1B1E
:1031E0009BB2ECE7121BE51A9B180D800B81DCE704
:1031F0000020704770B506000024144B1A78531C49
:10320000DBB2A3420FD84C220021114802F0ACFEE1
:103210001022FF210F4802F0A7FE1022FF210E48C6
:1032200002F0A2FE08E0A24207D924220B4B62431F
:103230001B689B18002B03D170BDA242FCD1084B28
:103240003000DB6801349847E4B2D6E7A0040020E0
:10325000EC0400200705002017050020A40400202E
:103260000468000810B5054A03001078002B02D04E
:1032700001F054FC10BD01F079FCFBE71C000020BC
:1032800010B5034A0B0011610121984710BDC046DB
:10329000EC04002070477047002070470020704702
:1032A00000207047704770477047704700230370D5
:1032B00018007047024B187E431E9841C0B27047F9
:1032C000EC040020024B987D431E9841C0B2704729
:1032D000EC040020F7B5234B050000931B78019107
:1032E000FF2B2AD1002901D10020FEBD00244C2251
:1032F00000211D4802F038FE1C4B1D481C70FFF7D2
:1033000081FD1C4E1C4B1D4A30001A60FFF7CEFF9A
:103310001B4F33783860FF2BE6D03278531CDBB27A
:10332000A3420CD8009B280001991D7001F02CFCD1
:103330000028D9D0280001F0F1FB0120D5E7A242F6
:103340000CD9242262433B689B18002BCCD05B68CD
:10335000002BC9D001349847E4B2DEE7A242C3D1C2
:10336000084BF4E71C000020EC040020E8040020D7
:1033700010000020A0040020DC0300200800002032
:10338000A404002004680008F0B5040040780D0093
:10339000033887B005280AD801F066FC039F23296B
:1033A000A2A70022784B1A751A765A759A75774B30
:1033B0001E68002D02D12800336898473000002392
:1033C0002100B2880830FFF70AFE0700002D02D165
:1033D0000120336898476178002F00D1BDE0207844
:1033E0006CE0694B1A7D002A6BD00122DEE7664B48
:1033F0001A7D002A65D00022D8E7B24263D93A008C
:10340000634B72431B689B18002B5FD10136F6B2E9
:10341000604B1A78531CDBB2B342EED85A4B009380
:103420009B7D002B27D00021009B03AE0C22300097
:10343000997502F099FD2378337006237370534B0E
:103440001F68002D02D128003B68984738000023F0
:103450003100BA880830FFF7C2FD0190002D02D17B
:1034600001203B689847019B002B04D02A0071780B
:103470003078FFF70FFF009B9B7EDB0721D5237879
:1034800003AE337004237370636873603F4B1C6832
:10349000002D02D128002368984720000023310026
:1034A000A2880830FFF79BFD0700002D02D1012004
:1034B00023689847002F04D0717830782A00FFF7EE
:1034C000E9FE07B0F0BDB242A0D1334B1B6A002B1E
:1034D0009CD020786168984798E70026242797E7D2
:1034E0002E4A13780133137061E721790F230E0000
:1034F0001E40194200D15AE7234B7600C8099A1999
:10350000244F12182B3212783F78BA4220D2204F23
:10351000009724275743BC46009F3A686244002A1C
:1035200000D144E7D769002F00D140E705229E195A
:1035300036183B3633789343337062792078A3682A
:10354000B8470028BDD105223378134333702EE7E6
:10355000BA4200D02BE7104AE4E7072904D10F4A0A
:103560001378013B1370ACE70829AAD10F23217906
:10357000054A0B405B00C909D3185B1805213B3392
:103580001A788A431A709CE7EC040020DC030020C0
:10359000A4040020A004002004680008E80400201F
:1035A000082210B514008B7800201C401A420AD162
:1035B0004B790A791B02134320005B0503D0024BB1
:1035C000187801F099F910BD1C0000200F2010B5EB
:1035D0000840C909044B3B3140004018C018002185
:1035E000FFF7A8FA10BDC046EC0400200F2010B56C
:1035F0000840C909044B3B3140004018C018002165
:10360000FFF7ABFA10BDC046EC0400200F23094AB7
:103610000B405B00C909D3185B1808213B331A78AB
:103620000A4205D01A780A4202D01A788A431A70E0
:103630007047C046EC040020F0B50F2485B00AA8FE
:1036400005780C400F486400CE090419A41901261E
:103650003B3420780393304210D1092327780A485D
:103660009F433E430078039B2670009501F0A4F928
:10367000031E04D1052223789343237000231800EE
:1036800005B0F0BDEC0400201C00002007B5064B7F
:103690008021DA88002A01D01B7899430022130088
:1036A0000092FFF7C9FF0EBDEC04002073B5164B66
:1036B00006009C89D889221A151C92B2402A00D98A
:1036C00040251A78ADB27F2A0ED9844218D0996865
:1036D0000E4CA14205D0081E11D02A00200002F095
:1036E0007BFC8021220004E000210A00844200D0FB
:1036F000064A0023300000932B00FFF79DFF76BDA4
:1037000080210022F5E7C046EC040020A804002038
:1037100037B50D4C1100A260E288151C9A4200D901
:103720001D1CABB2A581002A08D0002B01D00B1EB6
:1037300002D0FFF7BBFF030018003EBD130080213D
:103740000092FFF779FFF6E7EC040020F0B50F24B4
:1037500085B00AA805780C400F486400CE0904190A
:10376000A41901263B3420780393304210D1092359
:1037700027780A489F433E430078039B26700095B4
:1037800001F036F9031E04D10522237893432370F8
:103790000023180005B0F0BDEC0400201C00002040
:1037A00010B5094B0C00187801F036F90F22074BC1
:1037B0002240520099180323E40909193B310A7881
:1037C00013430B7010BDC0461C000020EC04002009
:1037D000F8B50F250B4C0D406D00CE0963199B19F0
:1037E0003B331F78084B187801F048F90722BF07D0
:1037F00000D4043A6419A4193B342378934323700A
:10380000F8BDC046EC0400201C0000200F22054B30
:103810000A405200C9099B185B183B33187880078F
:10382000C00F7047EC040020F0B5BC4B8DB01B7886
:10383000FF2B00D17AE210230693B94B00201D68BC
:1038400009AC2B689847280000232100AA8808307B
:10385000FFF7B0FB2B68060001209847002E0DD122
:10386000B04B1A68B24200D160E258681E609047BF
:10387000069B013B0693002BDFD157E260780138AD
:103880000828F5D801F004FA090010001A00DD023A
:10389000C302CE0223003A02D6022078FFF7AAFC28
:1038A0000022A14B1A70E3E72078FFF7A3FC002267
:1038B0009D4B1A7022799D4B5A76D9E72078FFF7F5
:1038C00099FC0022984B1A70FFF7EDFCD0E7964B5D
:1038D0001A78002ACCD01A78013A1A701A78D3B222
:1038E000002AC5D1914D01212A003B322975137060
:1038F0002A0028003C3213700AAA2478C0CAC0C02B
:10390000AB60EB602B6160232E783340602B27D0B7
:10391000402B08D1864B2A0020002B61FFF768FC62
:103920000028A5D11CE0F206D20E012A00D147E101
:10393000022A00D186E1002A12D1202B22D12A7935
:103940000F2A0DD82B797B4AEB18DB7E1278934235
:1039500010D2242278495A430B689B18002B0CD1B3
:1039600009AC0021207801F057F88021207801F07F
:1039700053F87DE79342F3D1704B59692000FFF76C
:103980007FFCCDE7002BEBD168780928E8D801F05F
:1039900075F90C010401E7FFFA00E7FF0A00A10036
:1039A000E7FF11001C002000A97801F019F801239D
:1039B0006B755DE7122204ABD2182B7E13700123C6
:1039C00029002000FFF7A4FE52E7AE782B7E9E422E
:1039D00012D0002B0BD00021200000F0BFFD2000F2
:1039E00001F0A4F86F7E2000FFF704FC6F762E76BE
:1039F000002E06D1FFF757FC4C492000FFF746FE8A
:103A000036E7013EF0B2FEF7F1FF002803D10022B5
:103A1000464B1A76A4E74378022BF8D10121C279EC
:103A2000EB7D92110A408B431343EB750500C3787D
:103A300082781B021343C31809350593059BAB42DB
:103A400045D92B78059AEB189A4240D36A780B2A0D
:103A500001D11D00F2E7042AD9D10026059B5B1B8A
:103A60009BB20793334B1A78531CDBB29E42CED2E3
:103A7000B24225D92422304B72431B689B18002B7D
:103A8000C5D0290020001B69079A9847070008281D
:103A90001AD9079B834217D3082302900093300062
:103AA000274A28490195DB18FFF765F80028AED0B2
:103AB000204BED191B780133DBB29E42BED3A6E743
:103AC000B242A4D11D4BDCE70136F6B2CAE7FFF7DC
:103AD000E9FB91E76B881A0A501EDBB20E2800D969
:103AE0003EE701F0CBF80F003B0044003DFF3DFFF7
:103AF0004D003B003DFF3DFF3DFF3DFF3DFF3DFFD6
:103B00003DFF3100FEF76EFF1223021E00D127E7B2
:103B100029002000FFF7FCFD02E7C0461C00002042
:103B2000DC030020D4030020E8040020EC04002083
:103B3000F1310008A0040020A4040020046800085B
:103B40000705002017050020FFF7A6FB021E00D185
:103B500006E7C37881781B020B43D9E71800022AD5
:103B600002D1FEF743FFF1E7FFF79AFBEEE71800FB
:103B7000A988FEF73FFF021E00D1F1E61378C7E7E0
:103B8000FFF78CFBF7E76B88012B00D0E8E6EA7DB6
:103B9000DB181343EB7529002FE76B88012B00D04E
:103BA000DEE60222EB7D9343F4E7122204ABD21847
:103BB000EB7D76B21380002E00DBD1E60223A7E76F
:103BC0002A790F2A00D9CBE62B79A54AEB18DB7EA0
:103BD0001278934227D22422A2495A430B689B1899
:103BE000002B00D1BCE620005969FFF749FB0028F3
:103BF00000D03DE62B78602218001040134200D020
:103C0000AEE6697828610A2912D00B2915D000295F
:103C100000D0A5E6122204A812185BB211808B42D4
:103C200000DB9DE6CAE7934200D099E68E4BDAE7C7
:103C3000122204ABD2181070C1E6AB78002B00D072
:103C40008EE6A8E72A79D1B2120700D588E60F22BE
:103C50000A405700C809ED192D1881482B352D78D9
:103C60000078944685421ED224277E486F4305681B
:103C7000ED19002B1DD17D4F02227B781800904357
:103C800001281BD0002B00D06AE62000FFF7BEFD04
:103C9000122204ABD21876B21080002E00DB5FE651
:103CA0000223390035E7854200D1D3E01D1EE2D062
:103CB00056E6002D00D153E669695FE67888002852
:103CC00000D04DE6844500D14AE6854200D147E662
:103CD0002000012B0FD1FFF77BFD69692000FFF762
:103CE000CFFA00233B613B003C331B783900DB07F4
:103CF00000D5BDE581E6FFF753FDEEE70F252179FD
:103D00005A4A0D402B00CE09002D3DD068001018F6
:103D100080192B30057852480078854208D2242734
:103D200050487D4300684019002804D10DB0F0BD13
:103D30008542FBD14C480825F7007D4005275B00F4
:103D4000D3189B193B331E78BE4335431D7025782D
:103D5000002856D1D388A6687B37834201D01378D8
:103D60009F43B94212D1002E00D081E53F4C28007C
:103D7000210000F0B3FD2369B34200D178E52200B1
:103D800003212800984773E52800D7E7374C2378AC
:103D90007F2B0FD8A068002800D169E5A389E289AC
:103DA0009B1A9E4200D91E003149884202D032003F
:103DB00002F012F9A268E3899219F318A260E2886E
:103DC0009BB2E3819A4201D03F2E16D82369002B83
:103DD00007D100223900130028000092FFF72CFCC5
:103DE00046E50221220028009847011EF1D1280053
:103DF00000F012FE80212800B9E52800FFF756FCEC
:103E000036E5866962792800A368B04730E5174B2C
:103E10001A7D002A00D12BE5D87D8007C00FFFF75F
:103E200043FA25E5114B1B7D002B00D120E5FFF760
:103E30003CFA1DE56368002B00D119E5A06898479E
:103E400016E50A4B9B7EDB0700D411E56068FFF79F
:103E500022FA0DE5044D002B00D02DE70BE7C046FC
:103E6000A0040020A404002004680008EC04002042
:103E7000A80400207047704770477047704770472C
:103E80007047000010B5002801D0002010BDFFF7DA
:103E900011FA0400FFF716FA002CF6D00028F4D12E
:103EA000024B0130DB781840F0E7C04638050020AF
:103EB0000300002010B583420ED10A4A148F518F9F
:103EC000A3B2928E88B28C4207DB1B1A9BB2101CE5
:103ED0009A4200D9181C80B210BD5100091A5B1813
:103EE000F4E7C046380500200300002010B58342E7
:103EF00002D10248FEF756FF10BDC0465C05002007
:103F00000300002010B5834202D10248FEF7D6FE1E
:103F100010BDC046440500200300002010B58342B8
:103F200002D10248FEF783FE10BDC04644050020C2
:103F30001FB5BE22124C00212000520002F014F8DE
:103F4000E1235B026360F8235B4263810024393321
:103F5000FF3301930B4B22002100009302942300B6
:103F60000948FEF737FE80235B000193074B2100D1
:103F70000093012302941A000548FEF72BFE1FBD93
:103F800038050020740600205C0500207405002020
:103F9000440500200120704770B50025044C012124
:103FA00004482560FEF732FFE31DDD77A57370BD81
:103FB0003805002050050020F7B54B7907000E00AA
:103FC000022B01D00020FEBD8B79022BFAD13B4B96
:103FD0003B4DDB7F002B02D0AB7B002BF2D12F704F
:103FE000B3786B703478B31800933419009B6278FF
:103FF0009C4206D223780099E318994201D3242ADF
:1040000015D0052A09D121003800FFF7C9FA002888
:10401000D8D0A378AB702378E4186378042B3AD116
:1040200063790A2B37D10022230001922DE01C0076
:10403000DCE700998B422DD29D18A9422AD36B78D8
:10404000052BBFD1EA78023B1340022BBAD12900DD
:104050003800FFF7A5FA0028B4D06B7929791B0244
:104060000B43AA785B0516495B0DD009012815D1D1
:104070000B82402313480F738A734B82FEF7C2FEF4
:10408000019B0133DBB201932B00217901981A784F
:104090008142CED89C18A01B80B294E7481DC777F8
:1040A000C81DC27708480B854B85FEF7ABFE074855
:1040B000FEF732FE0028E3D184E7C0463F0500202A
:1040C0003805002050050020680500205C05002010
:1040D000F8B504000B0010781100602200250240A2
:1040E000202A17D1254F4A790E7978781202324367
:1040F00090420FD14878203803280BD800F0B4FD47
:1041000002131632012B07D1072320001C4AFFF7A8
:10411000FFFA01252800F8BD032BFAD10020184929
:10412000FFF7ADFEF5E7012BF3D1EDE7012B03D14E
:104130002000FFF7ABFAECE7032BEAD10126CC789D
:104140008B7824021C4331002500A1430D483540E3
:10415000FC70FEF75BFE6208290000203240FFF78A
:104160008DFED6E7012BE3D0032BD2D18B78C97813
:10417000002009021943FFF783FECAE73805002033
:104180003C05002050050020F0B51F003B4B0E0001
:10419000DB7F3B4C87B08B420AD0A37B8B4247D05E
:1041A000A37800208B4201D183424DD107B0F0BDEE
:1041B000E16A002904D000233248BAB2FEF70FFFAB
:1041C000A31DDB7F002B05D1E31DD97F631DD87FA5
:1041D000FFF71CFAE37AFF2B1DD002AD2900294816
:1041E000FEF7CBFF2B89002B33D0EA68013BD318B5
:1041F000002B10D0EA68E17A01926A6800209446A8
:104200002A88013A6244B84205D01D788D4226D1F1
:104210000020FFF730FE228F638F9A4202D00020E9
:10422000FFF728FE1848FEF777FDA37BB3420BD1BA
:104230000020FFF721FE1548FEF7F9FC002803D106
:1042400039001248FEF7DAFCA378B34211D00120FE
:10425000ACE72B88002BDED06A68013BC7E7019DE5
:104260009D4204D09C45D6D0013B0130CBE71300E2
:10427000FBE70020FFF701FEE9E7C0463F0500200D
:1042800038050020680500205C050020440500205A
:10429000F7B50F25C4090540A01C01900800604037
:1042A00000238446174A019ED8B2965D002E06D0A0
:1042B00056788E421FD11678AE421CD1FEBD012920
:1042C00006D1104F9E00BE196644B678002E12D15A
:1042D0001678FF2E01D0AE420DD15678FF2E08D1B0
:1042E000084A9B00D554D318012259701B199A70A3
:1042F000E4E78E42F4D001330432082BD3D10020FE
:10430000DCE7C046B706002007B56B46DA1D991DED
:1043100000F078FC0300054A10881B189BB213803C
:104320008022D200934200D901480EBDB40600207D
:10433000FFFF00008022044B1206DA67BFF34F8FA5
:10434000BFF36F8F7047C04604E100E08022024B4C
:1043500012061A607047C04600E100E0F0B54289DD
:10436000038905009B1A80891C1C9BB289B083427B
:1043700000D9041C2E488B001B1804932D481B8861
:10438000002718430390C020C000034002938023FD
:104390000298A4B2DB00984202D1039B5F06FF0F94
:1043A0004B0005932449DB199B005E5A8B196E68FC
:1043B0000193002E34D00822002106A801F0D4FD7C
:1043C000022306AA13703000130001992200FEF7A1
:1043D000F1FD6B89184AE3186B81059BA405DB1975
:1043E0009B009B185A88A40D920A92022243302403
:1043F0005A80039B029A5C408023DB009A4201D1E1
:104400000123EB730D4B1C40FFF794FF049B1C80B2
:10441000BFF34F8FBFF36F8FFFF798FF09B0F0BD69
:1044200029683300891801982200FEF7F4FCD0E7D0
:10443000005C00408080FFFF00600040BF8FFFFFF6
:10444000F8B543001D4A5B181B01D3189D7B400142
:10445000012905D1103029008018FFF77FFFF8BD32
:10446000174BAE00F618338816491218164F19402C
:1044700014890F439189A2B28A4200D90C1CC02131
:104480008022C900A4B2D2000B40934204D1220082
:104490000021280000F0C8FB2200C024A401012153
:1044A00028007C4000F0C0FBFFF744FF3480BFF3DE
:1044B0004F8FBFF36F8FFFF749FFD0E7D80600207B
:1044C000005C00408FBFFFFF8080FFFFF8B5002435
:1044D000FF222500194E1A4B348001341A705A708D
:1044E0009D70DD700433082CF7D100214027154B57
:1044F00008001F80FFF7CCFE00218020FFF7C8FED8
:10450000114B38009F819D739F839D77FFF7FCFEC1
:1045100005003800FFF7F8FE0C4B22009D800C4D83
:104520001880012100202F8800F07EFB094B1F40DE
:10453000094B7B402B8080233380F8BD4C5C0040CE
:10454000B7060020B4060020D80600200060004016
:10455000005C00407070FFFF20220000064B002925
:1045600005D08022D98F92000A43DA877047DA8F0C
:1045700002490A40F9E7C046025C0040FFFDFFFF28
:10458000F0B5C14E8FB0F38F02938023029A9B0047
:104590001A4212D0BD4AD28F1A420ED08022BC4B92
:1045A00008A9F387BB4BD2001B880BA85B058A8147
:1045B0005B0D01210C93FEF7E7FE029B5B050FD517
:1045C000B54BF387FFF782FF802308AA9B009381F6
:1045D0000023012113740BA8FEF7D6FE0FB0F0BD27
:1045E000029BDB0412D50421A84B0BA8DA8F8A4367
:1045F000DA87DA8F49188A43DA87A84B08AAF38743
:10460000C023DB0093810739FEF7BEFE029B1B052A
:1046100012D508229D4B0BA8D98F0A43DA870422B2
:10462000D98F0A43DA879E4B08AAF387A023DB00C1
:1046300001219381FEF7A8FE029BDB050FD5994966
:104640000B78012B07D110249048C28FA243C28758
:10465000013B0B7001E0002BFAD1934BF387F38FF2
:104660001BB2002B05DB029B5B04B7D58F4BF38796
:10467000B4E70F22F38F1A408D4B9700FF183B8849
:10468000019205936B4614229B5E002B2BDA80224D
:10469000059B1201134263D0019B864ADB009A18E6
:1046A0001488854AA4059B181888844BA40D09AD6D
:1046B0002200C01829000023FEF7CBFB3B88804A6C
:1046C0001340804A1343804A13403B80082C41D159
:1046D000E02308AADB0093810CAB06CD06C30121C1
:1046E0002800FEF751FE8022059B1342B7D03B887D
:1046F0007349C0240B40754980250B430F21934318
:104700003B803B88E40019407148ED001C404A01A1
:10471000AC4213D18418E57F002DA0D00025E577A9
:1047200001245B06DB0F5C40019B5B001B19694C9D
:104730009B001B191C88A40AA4021C8083185C8B94
:104740001B8BA34200D190E0103201998018FFF733
:1047500005FE84E708220121002000F065FAC2E787
:104760003B88574A1340574A1343574A13400F2276
:104770003B803D88534B2B431A40C023DB002B402A
:104780000693802306990392DB000122994202D10D
:104790006B04DB0F5A40019B5B009B184D4A9B004A
:1047A0009A181488454AA4059B5AA40D9B18039A8D
:1047B0000793474B5201991848680490002832D05B
:1047C000082200210BA801F0CFFB022308AA1373D3
:1047D0000799220004980BABFEF701FC039A3C4BAF
:1047E00052019B1859899A89611889B2598194425A
:1047F00002D31B8999421FD30198012100F014FABA
:1048000080220025039B324C5B010BA8E4181201A7
:1048100063890280039A0121027183604571FEF76A
:10482000B3FDA5605FE74889D15822000918049BB1
:104830000798FEF70EFBD1E78020069CC00084425B
:104840000AD05B1A191C9BB2934200D9111C8AB280
:104850000198012100F0E8F91F4B1A4A2B4013433D
:10486000C022920153403B803DE780220BA81201F9
:10487000028080228360002352420A430271012198
:104880004371FEF781FDEAE6065C0040025C0040F1
:10489000FFFDFFFF485C0040FFFBFFFFFFEFFFFF56
:1048A000FFF7FFFFB6060020FFFEFFFFFFBFFFFF81
:1048B000005C004006600040046000400060004072
:1048C0008F8FFFFF8080FFFFFF7FFFFF8080000052
:1048D000D8060020026000408FBFFFFF0B785B0608
:1048E00007D14B78052B04D180228B781343014AE2
:1048F000138070474C5C0040F7B5CD784B798E78CB
:104900000A79AD071B02AD0F134329003000009355
:10491000FFF7BEFC234A83009B180193224A1B88A1
:104920000F24134080223440224307001343022DFA
:1049300004D00020032D31D1862500E080252D02F2
:104940001D43009BF6095B055B0D18000093FFF704
:10495000DBFC01227B0072409B18144A9B00640020
:104960009852A419124B009A24011B199A819F7323
:104970000C23012E00D1083B02249C406C40012EE8
:104980000DD10C4B1C40FFF7D5FC019B1C80BFF3E5
:104990004F8FBFF36F8FFFF7D9FC0120FEBD70234F
:1049A0009C43F0E7005C00407070FFFF0060004037
:1049B000D8060020FF8FFFFF0F20084070B5C909FF
:1049C0004500064C6D182D016251651900246C607C
:1049D0002B816C81FFF734FD012070BDD8060020CB
:1049E00007B50022130080210092FFF7E5FF07BD05
:1049F0000F2070B5002608404500C909054C6D1808
:104A00002D012E516419668162602381FFF718FD24
:104A1000012070BDD80600200F22C80911404900AE
:104A2000114B091809015B1870B59D7B0F4BAD0048
:104A3000ED182B880E4A012810D10E490B40134364
:104A40000422012494405C40FFF774FC2C80BFF3E7
:104A50004F8FBFF36F8FFFF779FC70BD06490B4096
:104A600013430C22EDE7C046D8060020005C00404E
:104A70008080FFFFBF8FFFFF8FBFFFFF0F20CB099D
:104A8000014049001F4AC9180901521870B5957BA9
:104A90001D4AAD00AD182C881C4A1443012B26D1A9
:104AA00040221B490A431440C0228021D2002240E8
:104AB000C9008A4211D00C22012B00D1083A2100F2
:104AC000D1400A0003210A40012A14D10B32012BE4
:104AD00000D1083A022393405C40FFF72BFC2C8066
:104AE000BFF34F8FBFF36F8FFFF730FC70BD802295
:104AF0000849D201D6E7084A013B1340313B1C402C
:104B0000EBE7C046D8060020005C00408080000033
:104B1000BF8F00008FBF000030D0FFFF10B5BFF384
:104B20004F8FBFF36F8FFFF711FC10BD70B50400FE
:104B3000FFF700FC01220021FF20094B094D9600E0
:104B4000013271530433187058709970D970082A63
:104B5000F5D12000FFF7E2FFC022034B1A8070BDA1
:104B6000B7060020005C0040B406002010B5FFF737
:104B7000E1FB10BD024A034B11880B4313807047C1
:104B8000585C00400080FFFF10B5040000F016F8EC
:104B90000021084B9A1C5033D1871980D18F064BC6
:104BA0000B43D387FFF792FC2000FFF7E3FF0120C0
:104BB00010BDC046005C004000DDFFFF03220F4B2C
:104BC00082B0DA8700220092009AC72A0DD902210A
:104BD000DA8F8A43DA8700230193019BC72B08D918
:104BE0000022074BDA8702B07047C046009A0132B4
:104BF000E9E7C046019B0133EEE7C046025C004096
:104C0000065C004010B53E2808D91F304309012436
:104C10002020DBB258430C70137010BD01304308E4
:104C200000240220F5E70000F7B56B469F1DDE1D4E
:104C300004000D00100039003200FFF7E3FF3A785E
:104C400033789B1A9B02D20313439BB2002B01D1F2
:104C500080231B0264006419024AA400A418638024
:104C6000F7BDC0460060004002B4714649084900E3
:104C7000095C49008E4402BC7047C04603B47146CB
:104C8000490840004900095E49008E4403BC704752
:104C900003B47146490840004900095A49008E444E
:104CA00003BC7047002243088B4274D303098B4234
:104CB0005FD3030A8B4244D3030B8B4228D3030CEC
:104CC0008B420DD3FF22090212BA030C8B4202D38E
:104CD0001212090265D0030B8B4219D300E0090AB6
:104CE000C30B8B4201D3CB03C01A5241830B8B42BF
:104CF00001D38B03C01A5241430B8B4201D34B03A8
:104D0000C01A5241030B8B4201D30B03C01A52410C
:104D1000C30A8B4201D3CB02C01A5241830A8B4291
:104D200001D38B02C01A5241430A8B4201D34B027A
:104D3000C01A5241030A8B4201D30B02C01A5241DE
:104D4000CDD2C3098B4201D3CB01C01A5241830992
:104D50008B4201D38B01C01A524143098B4201D3CC
:104D60004B01C01A524103098B4201D30B01C01AF7
:104D70005241C3088B4201D3CB00C01A5241830871
:104D80008B4201D38B00C01A524143088B4201D39E
:104D90004B00C01A5241411A00D2014652411046FE
:104DA0007047FFE701B5002000F0F0F802BDC046F3
:104DB0000029F7D076E7704703460B437FD40022E3
:104DC00043088B4274D303098B425FD3030A8B429F
:104DD00044D3030B8B4228D3030C8B420DD3FF2209
:104DE000090212BA030C8B4202D31212090265D0D7
:104DF000030B8B4219D300E0090AC30B8B4201D38A
:104E0000CB03C01A5241830B8B4201D38B03C01AD0
:104E10005241430B8B4201D34B03C01A5241030B47
:104E20008B4201D30B03C01A5241C30A8B4201D3F8
:104E3000CB02C01A5241830A8B4201D38B02C01AA3
:104E40005241430A8B4201D34B02C01A5241030A1A
:104E50008B4201D30B02C01A5241CDD2C3098B42FF
:104E600001D3CB01C01A524183098B4201D38B017C
:104E7000C01A524143098B4201D34B01C01A52411F
:104E800003098B4201D30B01C01A5241C3088B4264
:104E900001D3CB00C01A524183088B4201D38B004F
:104EA000C01A524143088B4201D34B00C01A5241F1
:104EB000411A00D201465241104670475DE0CA0FC8
:104EC00000D04942031000D34042534000229C4688
:104ED00003098B422DD3030A8B4212D3FC22890192
:104EE00012BA030A8B420CD3890192118B4208D368
:104EF000890192118B4204D389013AD0921100E0CA
:104F00008909C3098B4201D3CB01C01A52418309DD
:104F10008B4201D38B01C01A524143098B4201D30A
:104F20004B01C01A524103098B4201D30B01C01A35
:104F30005241C3088B4201D3CB00C01A52418308AF
:104F40008B4201D38B00C01A5241D9D243088B4205
:104F500001D34B00C01A5241411A00D201466346A8
:104F600052415B10104601D34042002B00D549420C
:104F7000704763465B1000D3404201B5002000F04B
:104F800005F802BD0029F8D016E770477047C04603
:104F9000F0B5C64647027B0A9C464B025A0A904629
:104FA00045004A002D0E120ECE0F00B59909C40F10
:104FB000BF09AB1AB4424BD0002B39DD002A00D117
:104FC00077E0FF2D00D1C1E08022D20411431B2BDA
:104FD00000DCFFE0013F7A0100D4B1E001277F420D
:104FE000BF01BA091600100000F010FF33000538A9
:104FF0008340854200DCD5E0B94F2D1A1F405A0787
:1050000000D178E10F221340042B00D173E1043763
:105010007B0100D46FE1681CFE2D00D07DE0FF20F5
:105020000022C0051043E407204380BCB846F0BD11
:10503000002B46D0531B002D73D1002F00D139E136
:10504000012B00D17EE1FF2B00D156E1013B6EE048
:10505000002B00DC85E0002A51D1002972D05A1EB5
:10506000012B00D12CE1FF2B70D01B2A4CDC13004C
:1050700008002022D840D31A99400B005A1E9341B1
:105080000343FF188023DB041F4200D12CE10135CC
:10509000FF2DC4D0934A79081140012217400F43D5
:1050A0007A0700D08DE01F42B5D1FB089C462B004B
:1050B0002EE0002946D0012B67D0FF2B46D0013BC4
:1050C00085E7FE206A1C104200D099E0002D00D038
:1050D000E6E0002F00D12FE1002919D080257A1AAF
:1050E000ED042A4200D15AE13400CF1B00D18FE0F9
:1050F00001202F4212D1FB089C46002308E0FF2D1F
:1051000024D01B2B00DC9AE00537FB089C462B00C3
:1051100062465202520AD8B283E7C0B2BA01520ABA
:105120007FE7FF2A00D1E8E08020C00407431B2B63
:1051300000DC88E04F1E34001500790100D54DE7F2
:105140002B000437FA089446FF2BE1D16346002B6D
:1051500000D145E18022D2031A435202FF20520AB5
:105160005FE7002B57D0531B002D78D1002F00D1C3
:10517000A1E05D1E012B00D1A2E0FF2B00D1BDE01C
:105180001B2D00DDC0E02B0070E0791A4A0100D42D
:10519000B6E089018D09280000F038FE2B000538A3
:1051A000834001252022401B0130121A1F0093402A
:1051B000C7405A1E93411F432AD000257B0700D1C8
:1051C00008E10F233B40042B00D020E77B0100D5F2
:1051D00021E76AE708002022D840D31A99400B0043
:1051E0005A1E93410343FF1A7B0100D5F8E67B0763
:1051F00000D15AE70F233B40042B00D007E754E7C8
:105200007B1A1A005B0158D4002A00D0EAE6002479
:105210000020002205E7FE226B1C1A4231D1002D2E
:1052200077D1002F00D1A6E0002900D1BCE07A1888
:10523000530100D4BAE092010120520AF1E6802223
:10524000D204114314E738002024D840E31A9F40C9
:105250007B1E9F41074334001500CF1BC4E7FF2A84
:105260004CD01B2B50DC8020C00407433800202585
:10527000D840EB1A9F407B1E9F41074315007F18C3
:1052800000E7FF2B00D1CAE67F187F087A0700D11C
:1052900090E00F223A40042A00D18BE0043751E716
:1052A000002F5DD1002900D086E080220024FF205D
:1052B000D203B6E634000F0044E73400CA1B91E67F
:1052C0007B185A0100D47EE0064F5B081F405A0746
:1052D00058D00F221340042B54D00223043731E757
:1052E000FFFFFFFBFFFFFF7D7B0704D00F233B4049
:1052F000042B00D08BE62B0024E73400C44625E7BE
:10530000CB089C46012303E70531CB089C461300DC
:10531000FEE6002FF2D0002936D08023DB039C4527
:1053200002D3984500D2C44680226346D2031A4372
:105330005202FF20520A74E6002900D167E73400C8
:10534000C446E5E6CB1B5A0124D59B019C092000ED
:1053500000F05CFD2300053883403400013521E76F
:10536000002911D08023DB039C45DDD39845DBD297
:105370003400C446D8E7002900D149E7CB089C4651
:105380000023C5E6022590E680226346D203FF2073
:105390001A4346E6DB089C4634000123B8E6002A9F
:1053A00015D1002400203CE60023B1E6D3089C463A
:1053B0000023ADE61D0078E680224346D203340088
:1053C000FF201A432DE6DB089C460123A0E6D20805
:1053D00094469DE601207B0100D59EE63900CDE78D
:1053E000FF201A001DE6C046F0B54F464646D64699
:1053F0004502C0B5C30F470099460E1C6D0A3F0E0B
:105400005AD0FF2F21D08023ED00DB041D43002361
:1054100098469A467F3F74027300640A1B0EF60F8B
:10542000002B1FD0FF2B42D080220020E400D204AA
:1054300014437F3B4A46FF1A434672400F2B00D964
:105440009CE071499B00CB589F46002D59D1082301
:105450009846063B74029A467300640A1B0EF60FC8
:10546000002BDFD1002C3BD101234A46414672403C
:1054700019430E2918D86548890041588F4653466C
:10548000022B00D1B9E0032B6ED04A462C00012B31
:1054900040D100200024C0052043D2071043E0BCC7
:1054A000BA46B146A846F0BDFF200024F3E7002C21
:1054B00020D10223FF3FD8E7002D05D104239846D1
:1054C000033B00279A46A6E7280000F09FFC7627BA
:1054D000431F9D4000237F4298469A463F1A9AE711
:1054E000200000F093FC431F9C4076235B421B1A74
:1054F00000209FE7032342461A4390460320FC33D3
:1055000098E70C239846093BFF279A4683E7032830
:105510002CD0320038007F30002847DD630704D0EC
:105520000F232340042B00D00434230103D538007B
:10553000374B80301C40FE28B6DCA401640AC0B2A0
:10554000A9E780240022FF20E403A4E78023DB03F3
:105550001D4201D01C420BD08024E4032C43640282
:105560004A46FF20640A96E74E462C008023DB0360
:105570001C4364023200FF20640A8CE76D01600165
:1055800085422ED21B230024013F012629006400FE
:105590006D00002901DB854201D32D1A3443013B04
:1055A000002BF3D16B1E9D412C43B3E703001A334C
:1055B00000DA6EE7012321001B1A9E37D940BC4058
:1055C0000B00611E8C412343590704D00F21194061
:1055D000042900D00433590113D49B0100205C0A34
:1055E00059E71A2301242D1ACFE7981E4342584148
:1055F000404232000024C0B24DE74A46FF2000245A
:1056000049E70120002446E7286800086868000888
:10561000FFFFFFF7F0B54646D6464F464402C0B5F9
:10562000C30F460098460D1C640A360E00D1CBE02D
:10563000FF2E6ED08023E400DB041C430023994638
:105640009A467F3E6F026B007F0A1B0EED0F002B08
:105650006DD0FF2B00D1A6E07F3BF6184B460A2BFE
:1056600000DD82E08023FF00DB041F4343466B40E4
:1056700098464B460022022B0FDD494601238B4002
:10568000A621C9000B4200D06FE0902189000B4297
:1056900000D0D3E08821194264D1200C2404240CCA
:1056A00021003B0C3F043F0C79435C434743584384
:1056B000E4190B0C1B199F4202D980225202801858
:1056C00009041A04090C52189401611E8C411B0C28
:1056D000920E1B1814439B011C431B0100D5CDE007
:1056E00030007F30002800DCAEE063070BD00F23D2
:1056F00032002340042B06D00434230103D580322A
:105700001000684B1C40FE2866DCA3015B0AC0B297
:105710001EE0002C00D08BE008239946063B6F0268
:105720009A466B007F0A1B0EED0F002B91D1002FC4
:1057300061D14A4601231A4391460A2A15DC4346A1
:105740006B4098464B460122022B96DC002000233A
:10575000C00518434346DD072843E0BCBA46B146BE
:10576000A846F0BDA8463C0092465346022B33D0D3
:10577000032B11D0012BE9D030008030721C00289F
:1057800063DD6307B9D00F232340042BB4D1B4E702
:105790000F2A78D0A8463C008023DB0323435B021A
:1057A000FF205B0AD4E7FF36002F2FD102234A46A1
:1057B00013430A2BD9DC42466A4090464A46002AE7
:1057C0000AD09946022258E7002C08D104239946B2
:1057D000033B00269A4635E7FF200023B8E7200068
:1057E00000F014FB7626431F9C4000237642994626
:1057F0009A46361A26E7380000F008FB4B46361A60
:10580000763E0A2BB1DC053887402FE703234A4652
:105810001A4313000A2ABBDC42466A409046012222
:105820009A40882113000322194200D135E799E7F5
:105830000C239946093BFF269A4603E70023984626
:105840008023FF20DB0383E7320003001A3300DAF2
:105850007CE79E320123210094401B1AD940621E2E
:1058600094410C43630704D00F232340042B00D042
:105870000434630111D50120002369E70123620884
:105880001C40144378E78023DB031C4284D01F4272
:1058900082D1A846FF203B435AE7A30100205B0AC0
:1058A00056E7C046FFFFFFF7F0B5C64647027B0A42
:1058B0004A0245009C46C40F530A4800984600B56A
:1058C0002D0EBF09000ECE0F9209FF2800D171E006
:1058D00001235E402B1AB4423CD0002B00DC9CE13B
:1058E000002800D1A3E0FF2D00D18BE08021C90466
:1058F0000A431B2B00DCFBE0013F7B0100D47BE073
:1059000001277F42BF01B9090E00080000F07EFAAE
:10591000330005388340854200DCD2E0B44F2D1AB5
:105920001F405A0700D1F6E00F221340042B00D18C
:10593000F1E004377B0100D4EDE0681CFE2D00D0BF
:1059400090E0FF200022C0051043E407204380BC04
:10595000B846F0BD002B00DC77E100286FD1002AAB
:105960004CD0591E012B00D146E1FF2B4AD01B29F8
:105970006ADC0B0011002020D940C31A9A40531E44
:105980009A410A43BF188023DB041F4200D1BBE0C9
:105990000135FF2DD5D0974A7908114001221740D3
:1059A0000F437A0700D09AE01F42C6D1FB089C46FD
:1059B0002B004DE02B00FF3B002A2ED101214E4051
:1059C000B44200D1B4E0002B50D0002D00D0EAE06A
:1059D000FF23002F00D1FAE0591E012B00D15CE11A
:1059E000FF2B00D13DE11B2900DC22E1571E3400D2
:1059F00005007B0100D583E72B000437FA089446A5
:105A0000FF2B25D16346002B9BD080226346D20317
:105A10001A435202FF20520A95E7B44200D1A4E093
:105A2000002B23D0002DD3D0C4463400EDE7002A4C
:105A3000E4D0012B39D0FF2BE4D0013B59E7FF2DF7
:105A4000E0D01B2B00DCA6E00537FB089C462B00B2
:105A500062465202520AD8B275E701203A007B0131
:105A600000D43FE1C0B2BA01520A6CE7FE216B1CC0
:105A7000194252D1002D00D0ACE0002F00D11AE124
:105A8000002A00D1F4E08021BB1AC9040B4200D1E6
:105A90003CE10124D71B3440002F46D001200F42A7
:105AA000E1D1FB089C460023D2E7BF1A7A0100D45B
:105AB000DAE0BD01A80900F0A9F9AB090538834077
:105AC00001252022401B0130121A1F009340C740BD
:105AD0005A1E93411F4328D000257B07BDD00F23BA
