:020000040800F2
:1000000000180020C5000008C1000008C100000859
:1000100000000000000000000000000000000000E0
:10002000000000000000000000000000C100000807
:100030000000000000000000C1000008E902000804
:10004000C1000008C1000008C1000008C10000088C
:10005000C1000008C1000008C1000008C10000087C
:10006000C1000008C1000008C1000008C10000086C
:10007000C1000008C1000008C1000008C10000085C
:10008000C10000080000000000000000C1000008DE
:1000900000000000C1000008C1000008C100000805
:1000A00000000000C1000008C1000008C1000008F5
:1000B000C100000800000000C100000805010008A0
:1000C000FEE7000010B500F0A3FA094A094B0A49FF
:1000D0008B4207D30021094B094A934205D300F014
:1000E0004FF8FEE701CA01C3F2E702C3F5E7C046D5
:1000F00078670008000000207000002070000020D9
:10010000CC07002010B5002004F024F910BD70B514
:100110000500002003F0A0FD00280DD0280005F008
:100120004EFE040000F0E8F80600002C04D000F0B9
:10013000E3F8801B312800D970BD2200290000207F
:1001400003F0C8FD2D18241A002003F0CFFD012074
:100150000021404203F052FAE7E7000070B5074C77
:100160002578002D09D10120012329004042237068
:1001700003F044FA00F0B2F9257070BDD100002000
:1001800070B50024DCB000F083FA01F077FE00F0D7
:1001900071FD02222E4901A805F008FE01A90020E8
:1001A00002F08EFB250000F07FF900F097F900F0D7
:1001B00029FD01200021404203F020FA002003F035
:1001C00061FD002823D102F05FFF002801D000F07C
:1001D00013FD00F091F8001BF92804D900F08CF809
:1001E000040000F065FD01F0E7F901F03DFA002898
:1001F000DBD0002003F030FD0028D6D0B42102A8C7
:10020000490001F04FFA02A8FFF781FFCDE76B46E6
:10021000DE1C01223100002003F050FDFF230028E6
:100220000CD033780D2BC9D00A2B07D1094E0A48C0
:100230003378C55401F0D2FB3570BFE705490A7821
:100240005E2ABBD8501C087003498B54B6E7C046E1
:10025000CC5D000870000020710000200122824067
:10026000094B10B500209A620424082299682143A2
:10027000996019682142FCD0196C013A4018002A93
:10028000F4D1C00810BDC0460024014030B510258F
:1002900009490A4B0C689A69104201D0012005E017
:1002A0009A692A4203D03022DA61002030BD0A6800
:1002B000121B0A2AEFD9F8E7D400002000540040AE
:1002C000064B1A69120603D5054A5A60054A5A6058
:1002D0000122D9681142FCD17047C046002002407B
:1002E00023016745AB89EFCD024A136801331360E0
:1002F0007047C046D4000020014B18687047C046C4
:10030000D400002070B50500044C266823689B1BB0
:10031000AB4200D370BDFFF721FFF7E7D400002008
:100320000123002904D090228340D20593617047B5
:100330001030F8E7034B186901238007C00F5840BD
:100340007047C04600040048031C642800D9642399
:100350000A22DBB25343014A536370470004004052
:1003600010B59024E4052268094B05201A4080232B
:100370005B00134323601023A361FFF7C3FF8023B7
:100380005B03A361C02322689B001343236010BD5D
:10039000FFFCFFFF112010B5FFF760FF054B0100C8
:1003A0001800002904D0044A1088584304F064FB64
:1003B00010BDC046E40C0000BAF7FF1F10B5FFF7F0
:1003C000E9FF04000520FFF749FF0349604304F0FB
:1003D00053FB0B23584310BDFF0F0000F0B585B051
:1003E00001930AAB05001E78002A51D07342734175
:1003F00040005B0603431004034380200C00284F99
:10040000800103437B608B1800930220FFF73EFFBF
:10041000002825D023780134BB62009B9C42F4D194
:10042000002E2DD04020FFF731FF002818D00024E7
:100430006B0032041B4D1A4F13431D437D60042093
:10044000FFF724FF00280BD07B6A019A1355013473
:10045000E3B2B342F3D32020FFF718FF002814D1F2
:1004600001210F4B1A688A431A6000220392039AF3
:10047000312A12DD0122196800200A431A600AE0BD
:100480002020FFF703FFB042EAD02023FB6101E008
:100490009642CCD1012005B0F0BD039A0132E5E7C8
:1004A0000054004000240002074B084A1A60084A22
:1004B0001A6004225A60074A9A60DA68002AFCD15E
:1004C000054A1A607047C04600300040CCCC00009E
:1004D00055550000E2040000AAAA0000014B024AA0
:1004E0001A60704700300040AAAA000010B504004E
:1004F000FFF7E6FE02220C4B19690A431A614022FB
:100500005C6119690A431A610122D9681142FCD160
:1005100002211A698A431A613422DA6019694C325D
:100520000A431A6110BDC04600200240F7B505001D
:100530000C00561CFFF7C4FE0120002107007208C2
:1005400053000093104B009A914206D13422DA6096
:1005500019694C320A431A61FEBD1E693E431E6191
:100560006E18B4466246665A1680DE683E42FCD17A
:1005700062461E69BE431E611288665A0231B21A73
:10058000564256413040DEE70020024070B50D0073
:1005900016000400FFF7AAFF320029002000FFF731
:1005A000C5FF70BDBFF34F8F034B044ADA60BFF342
:1005B0004F8FC046FDE7C04600ED00E00400FA059D
:1005C0008021084A4904536A506A0143516203205A
:1005D0009A0006D40138DA0003D41B01D80F012396
:1005E0005840704700100240054B064A1A60BFF39E
:1005F0004F8F054B054ADA60BFF34F8FC046FDE7CA
:10060000CC07002007B007B000ED00E00400FA05B9
:100610000D4B0E4A196810B5914214D100221A6090
:10062000012303200A498A691A438A6109490A6831
:10063000824313430B60084B1B6883F30888074B06
:100640001B689847FEE710BDCC07002007B007B035
:10065000001002400000014000C4FF1F04C4FF1F3F
:10066000064B07481B685843064B1A68064B534312
:100670005840064B1B6858407047C046B0F7FF1FF4
:10068000B179379EB4F7FF1F77CAEB85ACF7FF1F30
:100690008022724B5202596BF0B50A435A63802292
:1006A0009202596B1142FCD011216D4A1160032254
:1006B00059680A435A600C22596811400C29FBD131
:1006C0008022D86912040243DA618022D8691205B7
:1006D0000243DA61634A64485468644D04408020F0
:1006E0008005204350606020146830262043C024D9
:1006F00010605F4A5F48240610605F485F4AC02769
:1007000042602A6A1202120A22432A62002282608E
:100710009446073202608C225869D20302430120BA
:1007200010245A619A69564D02439A612A682243FD
:100730002A6090221425D20595621568B543254399
:10074000156016684F4D0C3C2E408025ED01354359
:100750001560C0251668AD00354303261560156881
:10076000B543156015688D4315601568BD43156068
:10077000C02517682D013D431560434D2F688F43F9
:100780002F60EF688F432743EF60156A3F4F644641
:100790002F4080256D043D43156215683C4F2F4066
:1007A0008025AD013D43156002252F27DA692A43D4
:1007B000DA61384A9762384FD76268275463976185
:1007C000193710621760354A0F345768074357606E
:1007D000976837439760176AA743384310621068D9
:1007E0000134B04328431060506805435560F0253C
:1007F000906808439060106AA8430443146210682C
:1008000088430439014311608022996992000A43A8
:1008100080219A61224A0906116190680143916022
:1008200091680029FCDB0721516180211D48C90323
:1008300004682143016001219068084390601068BA
:100840000842FCD08022D86992030243DA61002278
:10085000154B1A60154A1A611960F0BD001002406C
:1008600000200240006C0040FFFFFFCF00ED00E0E1
:1008700000000020006CDC0210E000E07FBB000004
:1008800000000140FF3FFFFF00040048FFFFFFF0B2
:10089000FFCFFFFF00040040E70300000014004802
:1008A0000024014008270140005400400E090020A8
:1008B000044B1A78044B002A01D098887047988B13
:1008C000FCE7C0462101002050010020064B58885B
:1008D0009A8881B2914200D2101CDB8882B29A427F
:1008E00000D2181C80B270472E010020064B588899
:1008F0009A8881B2914200D9101CDB8882B29A4258
:1009000000D9181C80B270472E0100200A780368B5
:10091000002A02D04268012A02DC00221A707047C5
:100920005A1C02600A7801311A704368013B436027
:10093000ECE7F0B50024CB1789B0CD1801900091F9
:100940005D4002AB013B280026000A210134E71874
:1009500004F018F93031397028000A2104F08CF8BD
:100960002F000500092FECD8009B002B05DA2D2263
:10097000B31C02A926000A551C00002302AA05A9DF
:10098000B6185842305C585401339C42F9D10023C8
:1009900001980B55FFF7BAFF09B0F0BD70B5040020
:1009A0000E0015000749FFF7B1FF31002000FFF7E7
:1009B000ADFF20000449FFF7A9FF29002000FFF741
:1009C000B8FF70BDCE5D0008D15D000870B50400B1
:1009D0000E0015000949FFF799FF31002000FFF7CD
:1009E00095FF20000649FFF791FF29002000FFF73F
:1009F0008DFF20000349FFF789FF70BDCE5D000821
:100A0000D45D0008CF5D000810B50A4C237E012B91
:100A100001D1208910BDA07E632801D96088F9E743
:100A200001F0CCFA63889AB2824200D9031C98B2D2
:100A3000F0E7C0465001002070B5012400250021D8
:100A40000B4A6300D05A0B4B1B788B4202D00A4BE7
:100A50000A21595E01F0A0FA01F072FA01342D1852
:100A6000042CECD12800032104F006F8C0B270BDBC
:100A70002E010020260100203C010020962330B5E5
:100A8000CFB05B0003AD01A8344902930195FFF795
:100A90003DFF334C01A862883249FFF77FFFA288EF
:100AA00001A83149FFF77AFFE28801A82F49FFF733
:100AB00075FF228901A82E49FFF770FF628901A8FE
:100AC0002C49FFF76BFFA28901A82B49FFF766FFAE
:100AD000E28901A82949FFF761FF228A01A8284974
:100AE000FFF75CFF628A01A82649FFF757FF227DC6
:100AF00001A82549FFF752FF627D01A82349FFF7AE
:100B00004DFFA27D01A82249FFF748FFE27D01A821
:100B10002049FFF743FF227E01A81F49FFF73EFF50
:100B2000627E01A81D49FFF739FFA27E01A81C497A
:100B3000FFF734FFE28B01A81A49FFF72FFFA28BC2
:100B400001A81949FFF72AFF184901A8FFF7DEFE9F
:100B50002800FFF7DCFA4FB030BDC046D85D000872
:100B600050010020E35D0008E95D0008EE5D00082B
:100B7000F25D0008F75D0008FE5D0008055E0008F4
:100B8000095E00080D5E0008125E0008185E00088D
:100B90001D5E0008215E0008255E00082A5E000830
:100BA0002E5E0008325E0008375E00083C5E0008DA
:100BB000602330B59BB002AC0D0000940A4901934C
:100BC000002800D009496846FFF7A0FE2A006846C1
:100BD0000749FFF7FBFE68460649FFF797FE20002E
:100BE000FFF795FA1BB030BD495E00083F5E000874
:100BF000A35E00083C5E00080122014B1A7070479A
:100C00001B010020154B70B51B78154D002B06D12C
:100C1000144B1B78002B02D100232B7070BDFFF703
:100C2000CDFB114B04009842F6D92B780133DBB28F
:100C3000022BF2D90026022031002E70FFF770FB44
:100C4000084B1E70094B1E6080235B029C4200D340
:100C5000074C0A20A1B201F04DFADFE7260100207F
:100C6000D80000201A010020684200001401002072
:100C7000FFFF000010B501210720FFF751FB01F035
:100C8000C7F9FFF79DFC032803D100211F3001F0B5
:100C9000E9F901F00BFB044B187001F011FCFFF7B0
:100CA0002BFB024B186010BD25010020E80000203E
:100CB000F0B587B0FFF720FB0700FFF77FFBFA22B4
:100CC000A04B80B20393188012010023904209D3F5
:100CD0009D4B9A890123824204D89C4B83429B41BD
:100CE0005B4202339A4A13709A4B019218000293A6
:100CF00001F038FC00280DD1974C984A2368FB1A64
:100D0000934207D901F0DCFB011E02D1232001F040
:100D1000F1F92760924C2378002B06D0914801F01E
:100D200009FB00280AD1207008E0019B1B78002BEA
:100D300004D001F0BBFA20700028EFD1FA228A4CCF
:100D400092002368FB1A934202D901F0E5FA27606A
:100D50000023864D2B80029B1B78002B40D18033D3
:100D60002B80019B81497E4A1B781278088800916C
:100D7000002B00D178E0002A00D077E0802292009A
:100D800002430A80009A1288012B00D083E0FF33CF
:100D90001343009A1380009B00251A880126100037
:100DA000734B744C19881A80884304402300EB402D
:100DB000334200D182E0EBB20493042D00D1ABE0CA
:100DC0003000A84010286CD80021082873D80138BA
:100DD00007286CD803F032FE6D906B946B6B6B97A9
:100DE000FFF774FD0400FFF781FD029A624B128940
:100DF0009A4201D801232B80604B9C4204D8524B6D
:100E00005B883233A34204DA0223584A11880B4329
:100E100013805B4A554B904205D81988CA0702D403
:100E200004220A431A80484A241AD289944205DDD2
:100E30001988CA0702D408220A431A804248029B32
:100E4000447D0A2060430A229B5E484A11888342FF
:100E500003DD10230B43138083E74A489BB2834290
:100E600000D87EE72023F5E79A4294D03D49464CCE
:100E70000A8A144203D04022024300980280434A67
:100E80000C20095E914200DC7CE7009A1188102258
:100E90000A43009975E7032B00D07CE78023DB0031
:100EA00076E7062D47D00A2D49D0052D40D00021E8
:100EB00001E0284B1989049801F01CF90135102D27
:100EC00000D073E7019B324A1B78324C022B63D16E
:100ED0001368002B03D13B1E00D10123136022783D
:100EE000002A5CD1184AFB1AD18BFA2292004A439D
:100EF000934254D3012351E0FFF7E8FC0100DAE705
:100F0000FFF7F4FCFAE7FFF7E1FC0590FFF7EEFCD2
:100F1000059B191A89B2CEE70A220E4B0A21595EA7
:100F2000094B5B7D53439942F4DC0E4B9989C2E730
:100F3000084B5989BFE70B4B198A49BAEAE7039B6B
:100F40001988B8E7280100205001002068420000FD
:100F50002D0100202E010020E8000020B80B000029
:100F6000250100203C010020E00000202A01002093
:100F700010010020FFFEFFFF6F1700009A10000015
:100F8000C309000070FE0000FFC400004C04000014
:100F9000140100201A010020002313602370FFF7C2
:100FA00033FD019B6749227805001B780391002AD5
:100FB00047D0022B49D1644B00241B7E022B05D065
:100FC000009B624C1B881C4063425C41FFF7B2F9F6
:100FD0005F4B1870039B1E88FFF76AFC002E01D040
:100FE000864201D9039B1880002C34D10024019B38
:100FF0001878012801D101F087F9002C00D1CEE04A
:10100000002001F081F903235D434E4BADB21E88F1
:10101000002E02D1FFF74CFC06004E4B1B88AB4262
:1010200000D1A7E0484B310003932800DA8801F093
:10103000E9F8002800D065E1FFF75EF9464B18603B
:10104000ADE0022B01D10024C0E70022434B1A700F
:10105000039B1A80F7E7424B01241B78002BC6D074
:10106000FFF734FC0600FFF741FC2B0009333D4A33
:101070000490B3420ADA32231470039A1380AB1C33
:101080009E4206DC0022374B1A7002E01378002BD8
:10109000F5D1FA21344AC9001368FB1A8B4217D3E1
:1010A000324B17601B78002B27D0330014339D423E
:1010B00023DC254A049B127DF31A93421DDD032392
:1010C000204A11884B439908C72B00D83221118040
:1010D0001D4B224A1B7E002B20D1049919318D42D1
:1010E0001CDC22490978994204D021490A20095E72
:1010F000952913DC0123137078E73C36B542E7DD10
:10110000FFF7D6FB0F4A13889842E1D919006331E3
:10111000814201DA643318001080D9E70024127884
:10112000A24204D10F4A013412785440E4B2012B98
:1011300000D05CE72A000499143A914200DB0023B6
:101140001C4054E72201002050010020FF0600004F
:1011500021010020DE000020EC0000202001002002
:101160002E010020240100201C0100202601002067
:101170003C010020C44B1B88B34200D052E7C34A55
:10118000C34B1288DB889A4200D04BE7FFF7B4F8D4
:10119000C04B1B68C01AC04B984200D942E7BF4DF4
:1011A0002B78A34202D0200001F078F82100022021
:1011B000FFF7B6F8FA21BA4A2C701368C900FB1A77
:1011C0008B4239D9B24D1760EC7D002C25D000241C
:1011D000B44B1B78A34220D09122009B1B881A425B
:1011E0001BD1FFF783FB2B7E06000393012B00D05E
:1011F00091E0AD4B1B78A34200D18CE02B891433D6
:10120000984200DC87E0FA213800C90003F034FC82
:10121000039B0534184200D1033CA44D2B78A34214
:1012200006D1A04B1A78002A06D05B7BA34203D0DC
:10123000200001F09BFA2C709D4B1C68002C00D004
:101240003C1B1F60954B1B78002B30D0994B1A78B4
:10125000002A0FD1029A20200A21525E0121197022
:10126000954B1F60029B1989944B1980944B1A80EF
:1012700000F0F8FE934D0A23E85E002808DDFA210D
:101280006043890003F0F8FB8F4E3368C01830606C
:10129000844B0A229A5E8A4B0020195E914200DA42
:1012A0001A80AB7B072B02D10122884B1A70814E2A
:1012B0007A4C3378864D002B58D0864B1B78002B08
:1012C00002D00122814B1A70714B1B7E012B4DD134
:1012D0002278002A4DD1009A7F491288114205D107
:1012E000714A1278002A01D0784A13702B78002BAB
:1012F0003FD0009B1988784B19423AD0242000F047
:10130000F9FE36E0754B039A1D805F4B1E80D28834
:101310005E4B1A8090E6FFF7D9FA6B89002483426E
:1013200000D37AE72D7D801BA84200DC75E75D4B7A
:1013300098885988DA888142A441644264001B1964
:101340005B8893420ED30224884200D965E70221CC
:10135000013C7519AA4200DC5FE701238B401C4366
:10136000E4B25AE70A0004240021F2E72378002BB4
:10137000BCD0019A237812782B70594C594D002A11
:101380005AD12B6801322270002B00D1FDE0337856
:10139000002B2DD0544B1A78002A29D101321A7013
:1013A0004A4B26201B78002B00D00538029B198958
:1013B00000F058FE414B2A20198800F053FEE1212D
:1013C000414B0901186803F057FB81B2272000F058
:1013D00049FE394B45491868381A03F04DFB81B274
:1013E000282000F03FFE364B2920198800F03AFEF5
:1013F000274B597E2B68FB1A002900D1CAE02B4AE3
:101400001278002A00D1C5E0384A4A439A4200D9EE
:10141000C4E000210220FEF783FF002001F0A6F9BE
:1014200001F0B9F900F07FFF0020FEF78DFF0021E9
:101430000720FEF775FFFEE7009927480988084254
:1014400004D00C23237000232B60A7E0012A0BD1CA
:10145000274B1A780D23002AF4D1144B1A78022353
:10146000002AEFD00733EDE7094A177E0E4A1278BB
:10147000002A3FD10E23022FE4D10C4B1A783B00F7
:10148000002ADFD00923DDE7DC000020DA0000209D
:1014900050010020EC0000208813000026010020ED
:1014A000F00000202E0100201A010020F80000208A
:1014B000000100200E01002008010020FC00002097
:1014C000FA0000203C010020040100200D01002052
:1014D0001801002020010020FF060000DE0000208F
:1014E0002C010020F40000200C01002060EA000024
:1014F0001B010020022FC0D0002B2ED0284B987B40
:10150000013806281FD803F099FA202004141E166B
:10151000180005262670FFF7CBF9224B1B88834263
:1015200015D2082E8FD00F232370012F8BD10A23C1
:1015300088E70626EEE70726ECE71B4B1E78731EAE
:101540009E410836E6E70326E4E70426E2E7012F9A
:1015500000D078E7082EEAD175E7144B1B78002BF2
:1015600005D0134B1B78002B01D10F336AE70E4BCC
:101570001B78012F03D1002B05D00B2362E75A1EE5
:10158000934108335EE708235CE73B1E00D113005C
:101590002B60FCE6074A934200D93AE707B0F0BD5A
:1015A0003C01002022010020F8000020240100203E
:1015B00020010020DC05000010B5FEF79DFE274A43
:1015C0000300947D264A107802380D2830D803F0A5
:1015D00035FA3131121212120E2612260731391243
:1015E0007D21180003F048FAC007C0170440E0B29C
:1015F000FEF7AAFE10BDFA211800C90003F0C2FAD6
:10160000FA239B00994202D3FA23DB00591A2000E7
:101610004843FA21890003F02FFA0400E7E7180095
:10162000104903F0AFFA6329E1D9FB396229DED909
:101630000024DCE7FA211800C90003F0A3FA4F29BF
:10164000D5D9F5E7FA211800890003F09BFAFA23AF
:101650005B009942ECD203212000DCE7500100201E
:101660002C010020DC05000070B50B4E0B4D3478CA
:10167000002C07D000233370FEF73EFE01242860C3
:10168000200070BDFEF738FE2B68C01A044B5B8A41
:101690009842F5D3EEE7C04619010020E40000208F
:1016A00050010020F0B585B00290039102A89B493B
:1016B000FFF72CF99A4A9B4B019212789A499200B3
:1016C000D25802A8FFF782F9984A994B0092127EED
:1016D00098499200D25802A8FFF778F9964A974B9A
:1016E000127897499200D25802A8FFF76FF9954BEC
:1016F00095491A8802A8FFF751F90022934B1D78EB
:10170000954202D0924B08229A5E924902A8FFF7B6
:1017100045F9914C2278002A22D022898F4902A8CB
:10172000FFF73CF90022954202D0894B0A229A5ECB
:101730008B4902A8FFF732F98A4902A8FFF7E6F8B9
:10174000250026000027718802A80137FFF7F1F86D
:10175000032F0AD0844902A80236FFF7D7F8F2E730
:101760009542DBD07A4B9A88D8E7804F02A839009F
:10177000FFF7CCF87E4902A8FFF7C8F80026002141
:101780007C4B68881B788B4202D0714B0A21595ED2
:1017900000F002FC00F0D4FB0136010002A8FFF7C4
:1017A000C8F8032E05D0704902A80235FFF7AEF83D
:1017B000E5E7390002A8FFF7A9F8FFF73DF96E4900
:1017C000020002A8FFF7EAF80A23E25E6B4902A8CA
:1017D000FFF7E4F800225D4B1B78934202D05C4B8C
:1017E0000C229A5E664902A8FFF7D8F8654B664955
:1017F0001A7802A8FFF7D2F8644B65491A8802A844
:10180000FFF7CCF85B4D63492C7802A82200FFF764
:10181000C5F8002C00D17BE04D4C0A22A35E322B90
:1018200000DC75E0FFF708F96421009A0B1A108AB2
:10183000584303F0ABF93C2358430A23E15E03F01D
:10184000A5F9019B1A780F23062A00D1053BC2187F
:10185000514902A8FFF7A2F8504B51491A7802A843
:10186000FFF79CF84F4B1C78002C54D14E4E336838
:10187000A34250D0009BDF8BFA239B005F43FEF70F
:101880003BFD33682200C11A8F4208D9FA21474A2A
:1018900089009B18DB19181A03F0EEF8020044497E
:1018A00002A8FFF77BF8FFF7AFF84249020002A851
:1018B000FFF774F800F032FC3F49020002A8FFF77E
:1018C0006DF800222B78934201D03C4B1A8802A875
:1018D0003B49FFF763F83B4B02A81A783A49FFF7F8
:1018E0005DF83A4B3A491A7802A8FFF757F8FEF725
:1018F00003FDFA21890003F0BFF83649020002A86F
:10190000FFF74CF8344902A8FFF700F805B0F0BD26
:10191000012252429CE701225242C0E7545E000875
:101920002C0100207C600008B55E000850010020FA
:10193000606000085D5E00082D0100206C600008FA
:10194000605E000828010020645E00082501002078
:101950003C010020695E00082E0100206E5E000838
:10196000735E0008785E00087F5E0008815E0008F4
:10197000835E0008260100208A5E00088E5E000853
:10198000915E0008F8000020215E00082A01002076
:10199000945E0008EA5D0008985E00081B010020C4
:1019A0009C5E00081A01002014010020E7030000DB
:1019B000A15E00082E5E0008A55E0008220100203E
:1019C000AA5E000820010020AE5E00082101002070
:1019D000B35E0008B85E00083C5E0008F0B5040085
:1019E000AFB02378202B0ED0002B0AD00126A74BB6
:1019F0002000A7491E7004F0CFF9002805D1A54B9F
:101A00001E702FB0F0BD0134EBE72000A24904F0B6
:101A1000C3F9002802D1FFF731F8F2E720009F490F
:101A200004F0BAF900283CD1A02306AC029301943B
:101A30000F26FEF715FE1C23994D03AA0100D9407D
:101A40003140695C043B11700132191DF6D100234D
:101A50006A469449137501A8FEF758FF924A9349C4
:101A600001A8FEF7B3FF924A924901A8FEF7AEFF24
:101A7000914903AA01A8FEF7A9FF904B90491A7853
:101A800001A8FEF78BFF8F4B8F491A7801A8FEF74C
:101A900085FF01A88D49FEF739FF2000FEF737FBCF
:101AA000AFE7042220008A4904F05EF9051E1CD12C
:101AB00004342021200004F049F98649A8421DD0B1
:101AC000290005700A22013004F02CF901002000E1
:101AD00000F00CFA051E00D17F4C21002800FFF712
:101AE00067F8002D00D18CE795E720007B4904F0D2
:101AF00053F9002805D100F0E5F97849FFF758F8C7
:101B00007FE72000764904F047F9002806D100F06D
:101B100075F930007249FFF74BF87CE70522200089
:101B2000704904F021F900281FD105346E492000C6
:101B300004F032F9431E98416C494542200004F0FC
:101B40002BF9002800D101252000694904F024F96F
:101B5000002808D067496B1C00D195E0664B210036
:101B600001201D76D7E70225F8E72000634904F03D
:101B700013F900280DD161490130FFF719F832201F
:101B8000FEF7C0FB00210220FEF7CAFBFEF72CFD8A
:101B900037E720005A4904F0FFF8002809D15849D6
:101BA0000130FFF705F83220FEF7ACFBFEF7FAFC38
:101BB00027E72000534904F0EFF8002806D1524BE4
:101BC0005249187843425841C0B297E72000504923
:101BD00004F0E2F800284BD10400502728E0200050
:101BE00000F0A2FA06004B4903A803950497FEF7FC
:101BF0008DFE3288484903A8FEF7D0FE7288474917
:101C000003A8FEF7CBFE3279454903A8FEF7C6FECE
:101C1000F288444903A8FEF7C1FE2C4903A8FEF749
:101C200075FE2800FEF773FAFEF758FC0134A4B2E3
:101C300000F074FA06AD8442D1D350233A4903A888
:101C400004930395FEF762FE00F068FA374902003C
:101C500003A8FEF7A3FE00F075FA3549020003A8B9
:101C6000FEF79CFE03A81949FEF750FE280015E771
:101C70002000304904F090F8002804D100F068FA00
:101C800001202D493AE72D49002037E71B010020AC
:101C9000C95E000819010020CC5E0008CF5E000874
:101CA0004F600008D25E0008DB5E0008E15E0008BD
:101CB000E45E0008E95E0008EC5E000825010020F3
:101CC000EA5D00082E010020F05E00083C5E00087E
:101CD000F45E0008F95E0008BB5E00080E5F0008B5
:101CE000135F00081C5F0008225F0008295F0008DE
:101CF000315F0008395F0008500100203F5F000895
:101D0000435F00084A5F00082D0100204F5F000874
:101D10006B5F0008705F0008075E00083A5E00080D
:101D20008C5E00087B5F00087D5F0008A85E0008ED
:101D3000455F00088B5F0008925F00089E5F000807
:101D40000300F7B5254AFF24944620330100019390
:101D50002348244B0A78654653401A00A343224087
:101D60001B0A12021A4313002A4003401B011209E6
:101D70001A431D4F1D4B1E4E13403A4092089B00C4
:101D800013431C4A01311A4033405B0855001D4380
:101D90002A0A194B52009B5A2D026B401A00A3438A
:101DA00022409BB212021B0A13431A0065460240EE
:101DB0002B4012011B0913430C4A1A403B4092006E
:101DC0009B0813430B4A1A40334052005B081343ED
:101DD000019A9142BED11800FEBDC046F0F0FFFF4F
:101DE0000F0F0000FFFF0000CCCCFFFF33330000DB
:101DF000AAAAFFFF55550000246200080A2210B568
:101E00000021144803F09AFF134B144A1A80144A15
:101E10005A80AF22D2009A80124ADA80124A1A817E
:101E2000124A5A81124A9A8196225200DA81114A44
:101E30001A82FA2252005A820F4A9A82942252003F
:101E4000DA82C43A9A765F3ADA83AF2292009A83B2
:101E500010BDC046680100205001002060A1FFFFB6
:101E600068100000DC050000D80E00003C0F0000E8
:101E7000E02E0000AA0500000F2D000070B50E4CEA
:101E8000637822781B0213430C4A934210D1A21CA0
:101E9000D57F631CDB7F2D0220001D43FFF750FF21
:101EA000854205D122222100054803F07FFF70BD45
:101EB000FFF7A4FFFBE7C046007C000860A100001C
:101EC0005001002010B5064C064B20002380FFF780
:101ED00037FF2222208421000348FEF757FB10BD64
:101EE0005001002060A1FFFF007C0008F7B50E0044
:101EF00000251427114B019000933C006C43009B7C
:101F00000198E418216803F047FF00280FD1E26828
:101F10000300B2420FDC2269B2420CDB227A636812
:101F2000022A02D11E80012305E01E70FBE7013565
:101F3000122DE2D100231800FEBDC046BC6000088F
:101F4000114A002370B5904217D9104A6433904269
:101F500013D80F4A633B5900515A81420FD35C1E7C
:101F60006500AA5A0B4D801A2C5DEB5C891A1B1B6D
:101F7000584302F081FD2318DBB2180070BD013315
:101F80000E2BE8D15633F8E7E40C00006710000090
:101F9000326400082464000810B50400002909DD3B
:101FA00019204843FA21890002F066FD844203D9D2
:101FB000241AA4B2200010BD0024FBE770B500284D
:101FC0001BD0632817D801230D4AD15C81420FD35F
:101FD0005C1E155D0B4A64005B00A45A9B5A401BB3
:101FE0001B1B5843491B02F047FD201880B270BDEF
:101FF00001330E2BE9D10448F9E70448F7E7C0465E
:10200000246400083264000868100000E40C00003A
:102010000022100013000F4970B50F4D0F4E0A80BB
:10202000802A0AD1002800D00A8001339BB2B34233
:1020300000D101230A4A138070BD2C88B442F1D02C
:1020400001320835181CA34200D2201C83B20120A3
:10205000E6E7C0467E03002000780008FFFF00008E
:102060007C030020F0B51C4D85B02B8807001B4E6B
:1020700001917F2B0DD9802219499200194803F054
:1020800095FE8022300017499200FEF77FFA402328
:102090002B80FEF731F9144B02AC1B882380134BC5
:1020A000984217D8FA21890002F0E6FC00236371F8
:1020B000019B6080E3802B880822DB002100F01860
:1020C0002771FEF733FA002802D02B8801332B80CA
:1020D00005B0F0BD0648E9E77E030020007800085F
:1020E000007A0008720100207C03002017FCE7033F
:1020F000FEFF000001221F2370B5150003409D4024
:1021000043091340044C9B001A59154203D12A433A
:102110001A51FFF7A7FF70BD74030020014B188808
:102120007047C0467E030020044A03001288002046
:102130009A4202D90248DB00181870477E0300203B
:1021400000780008014B18887047C0467C030020C7
:1021500010B50548FEF7CAF90021044B2520198067
:10216000FFF780FF10BDC046007800087E03002006
:102170001FB50B000F2101226944087000926B20EB
:10218000FEF72CF905B000BDF0B50B2685B06E4406
:102190000F00310005001400FFF7EAFF00280BD004
:1021A000337803A9BB431C4300230D704C700222FB
:1021B0006B200093FEF712F905B0F0BD1FB50B00C0
:1021C00003A98B701A0A002308704A706B2003223F
:1021D0000093FEF703F905B000BD30B50C000F21E8
:1021E000022387B0694405AD0870012200936B207B
:1021F0002B00FEF7F3F8002802D02B885BBA23806F
:1022000007B030BD70B51400204A0E00031C904288
:1022100000D9131C1E4A99B2914200D2131C0A2104
:1022200098B202F029FC81B20120FFF7C7FF194ADA
:102230000500301C96421FD9101C0A2180B202F002
:102240001BFC81B20320FFF7B9FF134A0540201C95
:10225000944216D9101C0A2180B202F00DFC81B202
:102260000620FFF7ABFF1022054030211000FFF7DA
:102270008BFF2840C0B270BDB2B2322ADDD232200C
:10228000DBE7A2B2642AE6D26420E4E7C8320000A9
:1022900010270000B80B0000E40C000010B542014C
:1022A00024210F20D2B2FFF76FFF10BD30B50B25F0
:1022B00085B06D4429004820FFF75AFF041E1CD04A
:1022C00038232A781340182B1AD100224E211120CE
:1022D000FFF75AFF00256A460A4B03A993816B203A
:1022E0002B0002220095FEF779F810223021100011
:1022F000FFF74AFF2800FFF7D1FF200005B030BDEF
:102300000024FAE72EA0FFFF10B5820004210F2061
:10231000D2B2FFF739FF10BD10B5082200211020FE
:10232000FFF732FF10BD10B5022206211120FFF782
:102330002BFF10BDF7B56B469F1C040039001C2015
:10234000FFF716FF051E207050D06B46DE1C3100D3
:102350001F20FFF70DFF01A92020FFF709FF6B46A3
:102360002120591DFFF704FF3B7835205A09DB0671
:102370001B0FE3733378A273A3746B461B7923742A
:102380006B465B7963746B469E1D3100FFF725FF3A
:10239000002801D03388638031003B20FFF71DFF08
:1023A000002801D03388A38031003D20FFF715FFBE
:1023B000002801D03388E38031003120FFF70DFF82
:1023C000002801D03388238131003320FFF705FF37
:1023D000002801D03388638131004120FFF7FDFEE2
:1023E000002803D0052332885343A3812800FEBD73
:1023F000024B4840185CC0B27047C0464E640008AB
:1024000030B505000C0085B010210020FFF7F0FF6B
:102410002900FFF7EDFF2100FFF7EAFF002303A9E2
:1024200088700D704C70032200930820FDF7D6FFD2
:1024300005B030BDF0B50E000F2189B002ABC91850
:102440005300DBB206AD08701700009301222B0089
:102450000820FDF7C3FF041E1DD02B78112100209A
:102460000393FFF7C5FF0399FFF7C2FF6B78834221
:1024700011D1AB780493039B3370022F08D1002055
:102480000499FFF7B5FFEB78834204D1049B737086
:10249000200009B0F0BD0024FAE737B501AC0D000B
:1024A00002222100FFF7C6FF002807D0FC22237874
:1024B00092011B021340627813432B803EBD000043
:1024C00073B5FDF74DFF96204000FDF71BFF192166
:1024D0000B20FFF795FF002836D018210420FFF7C6
:1024E0008FFF00210520FFF78BFFFF210020FFF762
:1024F00087FF6B465E1D012231005020FFF79AFFD7
:1025000000281FD06B469D1D012229005920FFF78E
:1025100091FF002816D06B46DC1D012221005120BE
:10252000FFF788FF00280DD0182332780B4952009E
:102530001A402B785B0913436E33FF3322780B80EC
:10254000074B1A70012008E06420FDF7DBFE19211B
:102550000B20FFF755FF0028BFD176BD04000020F7
:1025600080030020F0B587B002AB9D1D040001225E
:1025700029000020FFF75EFF207000280FD02021E7
:102580002B7823730B4202D00020FFF739FF0C2079
:1025900004A9FFF782FF002805D10023237000253E
:1025A000280007B0F0BD0A2302AA0E209918FFF7F1
:1025B00074FF0028F1D0142005A9FFF76EFF051E57
:1025C000EBD00027FA215C4B89001E885B4BDF575C
:1025D00002AB1889704302F0D9FAC019C343FA213B
:1025E000DB17184002AB0190608058898900704366
:1025F00002F0CCFAC019C343FA21DB17184002AB32
:102600000090A08098898900704302F0BFFAC01939
:10261000C3430E26DB171840009A019BE0809B18ED
:10262000C01802ABF618208131002C20FFF735FFCF
:1026300000286BD0BF20338840005843404B421ED7
:102640009A4276D803F084FA3E49061C02F0CCFE8A
:10265000311C071C3C4803F011F8011C381C02F027
:10266000ADFD384902F0AAFDFE218905061C03F0E4
:1026700005F8FE21071C8905301C02F073FB011CC4
:10268000381C02F09BFD011C061C02F0ADFE011C73
:10269000071C02F0A9FE2D490090381C02F08EFDA7
:1026A000FE21890502F05EFB29490190009802F0A5
:1026B00085FD011C019802F055FB00990190381C22
:1026C00002F092FE234902F079FD011C019802F00C
:1026D00049FB311C071C301C02F044FB011C381C58
:1026E00002F082FE1C4902F069FD1C4902F03AFB2F
:1026F000011CFE20800502F061FD194902F0BEFFB9
:10270000184902F071FE03F003FA6081012202AB66
:10271000DE1D31001000FFF78DFE002800D13FE7DD
:102720000421327893080B4001390A401343637344
:1027300036E70D48E9E7C04604000020800300208A
:102740009E5A320000401C46806A494A00004040C0
:102750000000A0400000E04000B056450FCF5B3BBA
:10276000339388430000204119FCFFFFC34310B599
:102770009B070BD1022398431023810019400D3B86
:10278000184001430120FFF73BFE10BD0623034024
:10279000062BF1D1EEE710B500210120FFF730FE46
:1027A00001210420FFF72CFE022104000420FFF782
:1027B00027FE2040C0B210BD00487047BF6500082A
:1027C0000048704774650008030070B500280CD1FC
:1027D0001C4B1D4A5A800123C0220133DBB2194829
:1027E0005B0092001343038070BD032810D1FDF7F6
:1027F00037FF0F251C23154A154C0100D9402940ED
:10280000615C043B11800232191DF6D10C33E3E701
:102810000020042BE8D80F4A9B009C58200003F0AE
:10282000CEFA031CC0B2202800D920232000DBB23E
:10283000044AE1188842CFD0047802320130148073
:10284000F8E7C0468203002009040000840300204A
:102850004E6500086065000810B581780300081E09
:1028600006D000205A78824202D1187800F098FDF4
:1028700010BD73B50024427805000B00A2420AD1B6
:102880008268A9780078A24207D12A0000940C320D
:1028900000F046FE0400200076BD1D006E1EB5410E
:1028A0006D422A40009400F0B1FDF3E710B5437883
:1028B000002B03D18178007800F082FD10BD00006C
:1028C0000A0013B500290CD16B460124100001A9A0
:1028D0009C8000F0E9FB031E01D00A4A1470180026
:1028E00016BD00230128FAD809789942F7D0054B84
:1028F000195401239942F2D1110000F0D5FB0300D5
:10290000EDE7C046C403002010B501780D220C008D
:10291000030014400020114208D119782000114210
:1029200004D101201978093A0A431A7010BD052311
:102930000178020019400B1F58424341D8B20429C4
:1029400002D113788B4313707047F7B508AC0AAD0A
:1029500027782E88099C0193A619B44222D22578A3
:102960006519AE421ED36578052D0CD1A5782B00D4
:102970000F251D40BD4213D26D00DB094D19E854EF
:1029800025786419E9E7042DFAD1E578002DF7D10F
:10299000A3789C46019B9C4502D26346D054EFE746
:1029A0000020FEBD0120FCE770B504AA0D0002CA9C
:1029B00004001288081E0AD00020824207D020009E
:1029C00065700C3000F0F9F80120069BA36070BD23
:1029D00070B5828AC38A04009A4201D0002070BD7B
:1029E0000029FBD00D008388013B1D401942F5D121
:1029F000FFF732FF0028F1D029002000FFF739FF50
:102A0000EDE770B50400858AC28A218AABB290B224
:102A1000954228DB1B1A9BB20A1C994200D91A1C4A
:102A200092B2002A32D02000FFF716FF00282DD0E6
:102A3000A16800291FD1A58AE18A228AABB288B297
:102A40008D4214DB1B1A9BB2151C9A4200D91D1C27
:102A5000ADB2002D17D029002000FFF70AFF002893
:102A600014D0280070BD4A00121A9B18D3E75100F9
:102A7000091A5B18E7E720000023E2880C3000F019
:102A800083F90500E5E72000FFF710FF0020E9E7E4
:102A900070B50500101E22D080235B029A4200D33D
:102AA000114882B2280000230C3000F082F9AE8A6F
:102AB000E98A04002A8AB3B288B28E4210DB1B1A5C
:102AC0009BB2A888111C9A4200D9191C89B2814274
:102AD00001D2904202D92800FFF793FF200070BD79
:102AE0005100091A5B18EBE7FFFF000070B5040006
:102AF000858AC18A228AABB288B28D422EDB1B1A2C
:102B00009BB200219A4201D9D21A91B2A3888B427A
:102B10002FD82000FFF7A0FE00282AD0A58AE18A3E
:102B2000228AABB288B28D421CDB1B1A9BB20021F9
:102B30009A4201D9D21A91B2A3888B4216D85B422D
:102B4000E2880B401D1C934200D9151C2000A9B23D
:102B5000FFF78FFE00280CD0A8B270BD5100091AF3
:102B60005B18CDE75100091A5B18DFE72000FFF77B
:102B70009DFE0020F1E70000802370B55B02040099
:102B80009A4200D3064A2000002392B20C3000F093
:102B9000FBF805002000FFF7A9FF280070BDC04624
:102BA000FFFF00008A1892B24000914201D8824291
:102BB00001DB121A92B21000704770B58026002512
:102BC000040036022800B24205D865812160A28047
:102BD000A3712581013070BD0023438103817047BB
:102BE00083798B4200D08171704737B50400022091
:102BF000002B00D018788D1806E04B780A781B025D
:102C000013432380091802346A1A92B29042F4D90D
:102C1000002A07D0002301AD2800019303F0C6F875
:102C20002B88238037BD37B504000225002B00D048
:102C30001D780800891805E02388023403701B0AF8
:102C4000437040190A1A92B29542F5D9002A04D06D
:102C5000238801A90B8003F0A9F837BDF0B5070060
:102C600089B00D000EA90888B9881C1AA4B2834245
:102C700002DA4E00A419A4B2002C22D0A14205D23F
:102C8000994221D85B1A0C0098B27881231C944297
:102C900000D9131C9CB2814218D90E1A611A41182E
:102CA0008BB201933B68B6B202931B1803930F9B40
:102CB000002B58D0B4420CD8220028000399FFF70B
:102CC00094FF200009B0F0BDCB18DCE7401A80B2B9
:102CD000E1E70F9B28001F7803997B423340049360
:102CE000049A0F9BFFF781FF049B7A1E3240EB187A
:102CF000D2B218000593002A29D0BF1A019B3D1CAF
:102D0000BFB29F4201D96B469D880023039E049960
:102D1000EFB2761807A8F15C19540133D9B2914289
:102D2000F9D3002307A98918D8B2B84216D3EDB257
:102D30000F9B0598521907A9FFF757FF019B0598AC
:102D40005B1B9BB20193029B02305B190293019BB8
:102D5000002BB6D00F9B019A0299B0E70298C05C95
:102D6000C8540133E0E7B44205D822002800039993
:102D700003F01CF8A5E732000399280003F016F8C9
:102D80003968019AA819F3E737B504001D000389D3
:102D900040899BB2019500902000FFF75FFF05007E
:102DA00061892A00A08889B2FFF7FCFE60812800B3
:102DB0003EBDF0B58BB007000E00141E039337D054
:102DC00003899BB2019341898379858889B2002B5D
:102DD00036D1019B8B422EDB591A89B2A94200D30E
:102DE000B3E0691A0B1C89B2A14200D9231C9CB222
:102DF000019BAB4245D2EA1A651B92B25D1904925F
:102E0000AAB202923A68D3180593039B002B00D113
:102E100088E0049B9C4237D822003000039B059930
:102E2000FFF701FF2200B8880199FFF7BBFE388148
:102E300020000BB0F0BD6B00591A019B5918CCE76C
:102E4000AA420AD3039B002B01D1541B361900243C
:102E5000A542EDD02C000191CAE7019B6A008B428C
:102E60000BDB5B1A9BB21B199342C1DB2A1B2800A8
:102E700092B2FFF797FE0190BAE70198531AC31870
:102E8000F0E75B1B9BB2B4E7039B049A1D7830000C
:102E90006B421A400599039B0792FFF7C4FE079BFC
:102EA000049AF31806936B1E1A40D6B2002E37D040
:102EB000AD1B029A2B1CADB2954201D96B461B8902
:102EC000DAB2DDB20492039B721909A90698FFF7E2
:102ED000AAFE069B059A023306930023079952180F
:102EE00009A9C95CD1540133D9B2B142F8D3002346
:102EF00009AA9219049ED8B2396886420CD8029B5E
:102F000049195B1B9BB20293029B002B00D189E7FE
:102F1000039B029A069883E7D05CC8540133E9E723
:102F20003968F1E7049B9C4205D8220031000598DE
:102F300002F03CFF76E73100049A059802F036FF74
:102F4000049B3868029AF118F2E7002470E770B524
:102F5000068942898488B5B293B2964211DBEA1A97
:102F600092B2944205D2AC420FD822002B1B9BB2E6
:102F70004381002A1AD10A800A814A600020C86071
:102F800070BD6200D21AAA18EAE7220063199BB248
:102F900043819C420DD90068C6184E60AB420BD2EB
:102FA00000230A800B81E9E72D1BADB2AC42FBD9AF
:102FB000EFE71B1B9BB2ECE7121BE51A9B180D8079
:102FC0000B81DCE70020704770B506000024144B2D
:102FD0001A78531CDBB2A3420FD84C2200211148AF
:102FE00002F0ACFE1022FF210F4802F0A7FE1022D3
:102FF000FF210E4802F0A2FE08E0A24207D92422D7
:103000000B4B62431B689B18002B03D170BDA2427F
:10301000FCD1084B3000DB6801349847E4B2D6E7B6
:1030200094040020E0040020FB0400200B05002095
:1030300098040020D465000810B5054A03001078F4
:10304000002B02D001F054FC10BD01F079FCFBE72D
:103050001C00002010B5034A0B00116101219847A4
:1030600010BDC046E0040020704770470020704744
:1030700000207047002070477047704770477047C6
:103080000023037018007047024B187E431E9841BE
:10309000C0B27047E0040020024B987D431E984167
:1030A000C0B27047E0040020F7B5234B0500009341
:1030B0001B780191FF2B2AD1002901D10020FEBDF0
:1030C00000244C2200211D4802F038FE1C4B1D48F4
:1030D0001C70FFF781FD1C4E1C4B1D4A30001A600E
:1030E000FFF7CEFF1B4F33783860FF2BE6D03278E6
:1030F000531CDBB2A3420CD8009B280001991D7021
:1031000001F02CFC0028D9D0280001F0F1FB0120AF
:10311000D5E7A2420CD9242262433B689B18002BBE
:10312000CCD05B68002BC9D001349847E4B2DEE70D
:10313000A242C3D1084BF4E71C000020E0040020A9
:10314000DC0400201000002094040020D0030020A4
:103150000800002098040020D4650008F0B50400A1
:1031600040780D00033887B005280AD801F066FCC6
:10317000039F2329A2A70022784B1A751A765A7545
:103180009A75774B1E68002D02D128003368984746
:10319000300000232100B2880830FFF70AFE070044
:1031A000002D02D10120336898476178002F00D1AB
:1031B000BDE020786CE0694B1A7D002A6BD00122BB
:1031C000DEE7664B1A7D002A65D00022D8E7B242BE
:1031D00063D93A00634B72431B689B18002B5FD185
:1031E0000136F6B2604B1A78531CDBB2B342EED80C
:1031F0005A4B00939B7D002B27D00021009B03AEF0
:103200000C223000997502F099FD23783370062363
:103210007370534B1F68002D02D128003B689847FC
:10322000380000233100BA880830FFF7C2FD019052
:10323000002D02D101203B689847019B002B04D050
:103240002A0071783078FFF70FFF009B9B7EDB0729
:1032500021D5237803AE33700423737063687360E1
:103260003F4B1C68002D02D128002368984720009E
:1032700000233100A2880830FFF79BFD0700002DD6
:1032800002D1012023689847002F04D0717830784C
:103290002A00FFF7E9FE07B0F0BDB242A0D1334BE0
:1032A0001B6A002B9CD020786168984798E700261D
:1032B000242797E72E4A13780133137061E72179A9
:1032C0000F230E001E40194200D15AE7234B76000F
:1032D000C8099A19244F12182B3212783F78BA4233
:1032E00020D2204F009724275743BC46009F3A68BE
:1032F0006244002A00D144E7D769002F00D140E79B
:1033000005229E1936183B36337893433370627921
:103310002078A368B8470028BDD10522337813432D
:1033200033702EE7BA4200D02BE7104AE4E70729B2
:1033300004D10F4A1378013B1370ACE70829AAD1D6
:103340000F232179054A0B405B00C909D3185B188C
:1033500005213B331A788A431A709CE7E004002069
:10336000D00300209804002094040020D4650008B5
:10337000DC040020082210B514008B7800201C40CB
:103380001A420AD14B790A791B02134320005B05CC
:1033900003D0024B187801F099F910BD1C000020F1
:1033A0000F2010B50840C909044B3B3140004018BC
:1033B000C0180021FFF7A8FA10BDC046E0040020A5
:1033C0000F2010B50840C909044B3B31400040189C
:1033D000C0180021FFF7ABFA10BDC046E004002082
:1033E0000F23094A0B405B00C909D3185B18082159
:1033F0003B331A780A4205D01A780A4202D01A786A
:103400008A431A707047C046E0040020F0B50F24CC
:1034100085B00AA805780C400F486400CE0904194D
:10342000A41901263B3420780393304210D109239C
:1034300027780A489F433E430078039B26700095F7
:1034400001F0A4F9031E04D10522237893432370CD
:103450000023180005B0F0BDE00400201C0000208F
:1034600007B5064B8021DA88002A01D01B789943E2
:10347000002213000092FFF7C9FF0EBDE0040020F8
:1034800073B5164B06009C89D889221A151C92B276
:10349000402A00D940251A78ADB27F2A0ED984423D
:1034A00018D099680E4CA14205D0081E11D02A00F0
:1034B000200002F07BFC8021220004E000210A00B1
:1034C000844200D0064A0023300000932B00FFF70F
:1034D0009DFF76BD80210022F5E7C046E004002074
:1034E0009C04002037B50D4C1100A260E288151C29
:1034F0009A4200D91D1CABB2A581002A08D0002B2E
:1035000001D00B1E02D0FFF7BBFF030018003EBD29
:10351000130080210092FFF779FFF6E7E004002016
:10352000F0B50F2485B00AA805780C400F48640058
:10353000CE090419A41901263B34207803933042A4
:1035400010D1092327780A489F433E430078039B04
:103550002670009501F036F9031E04D10522237868
:10356000934323700023180005B0F0BDE004002051
:103570001C00002010B5094B0C00187801F036F93A
:103580000F22074B2240520099180323E40909191E
:103590003B310A7813430B7010BDC0461C0000205D
:1035A000E0040020F8B50F250B4C0D406D00CE094E
:1035B00063199B193B331F78084B187801F048F9C1
:1035C0000722BF0700D4043A6419A4193B342378B6
:1035D00093432370F8BDC046E00400201C00002087
:1035E0000F22054B0A405200C9099B185B183B3358
:1035F00018788007C00F7047E0040020F0B5BC4B7E
:103600008DB01B78FF2B00D17AE210230693B94BC3
:1036100000201D6809AC2B68984728000023210072
:10362000AA880830FFF7B0FB2B68060001209847F6
:10363000002E0DD1B04B1A68B24200D160E258683A
:103640001E609047069B013B0693002BDFD157E29B
:10365000607801380828F5D801F004FA0900100054
:103660001A00DD02C302CE0223003A02D6022078FD
:10367000FFF7AAFC0022A14B1A70E3E72078FFF7BE
:10368000A3FC00229D4B1A7022799D4B5A76D9E7F4
:103690002078FFF799FC0022984B1A70FFF7EDFC99
:1036A000D0E7964B1A78002ACCD01A78013A1A70D3
:1036B0001A78D3B2002AC5D1914D01212A003B329C
:1036C000297513702A0028003C3213700AAA247846
:1036D000C0CAC0C0AB60EB602B6160232E78334062
:1036E000602B27D0402B08D1864B2A0020002B616D
:1036F000FFF768FC0028A5D11CE0F206D20E012AD3
:1037000000D147E1022A00D186E1002A12D1202B04
:1037100022D12A790F2A0DD82B797B4AEB18DB7E30
:103720001278934210D2242278495A430B689B188E
:10373000002B0CD109AC0021207801F057F8802132
:10374000207801F053F87DE79342F3D1704B59692B
:103750002000FFF77FFCCDE7002BEBD1687809282C
:10376000E8D801F075F90C010401E7FFFA00E7FF62
:103770000A00A100E7FF11001C002000A97801F059
:1037800019F801236B755DE7122204ABD2182B7E6A
:103790001370012329002000FFF7A4FE52E7AE7842
:1037A0002B7E9E4212D0002B0BD00021200000F077
:1037B000BFFD200001F0A4F86F7E2000FFF704FC9D
:1037C0006F762E76002E06D1FFF757FC4C4920006D
:1037D000FFF746FE36E7013EF0B2FEF7F1FF0028A4
:1037E00003D10022464B1A76A4E74378022BF8D186
:1037F0000121C279EB7D92110A408B431343EB7593
:103800000500C37882781B021343C318093505935A
:10381000059BAB4245D92B78059AEB189A4240D3C9
:103820006A780B2A01D11D00F2E7042AD9D10026BB
:10383000059B5B1B9BB20793334B1A78531CDBB27F
:103840009E42CED2B24225D92422304B72431B680D
:103850009B18002BC5D0290020001B69079A9847A8
:10386000070008281AD9079B834217D30823029020
:1038700000933000274A28490195DB18FFF765F8C7
:103880000028AED0204BED191B780133DBB29E42ED
:10389000BED3A6E7B242A4D11D4BDCE70136F6B297
:1038A000CAE7FFF7E9FB91E76B881A0A501EDBB203
:1038B0000E2800D93EE701F0CBF80F003B00440092
:1038C0003DFF3DFF4D003B003DFF3DFF3DFF3DFF08
:1038D0003DFF3DFF3DFF3100FEF76EFF1223021E4C
:1038E00000D127E729002000FFF7FCFD02E7C046D2
:1038F0001C000020D0030020C8030020DC040020AE
:10390000E0040020C52F0008940400209804002043
:10391000D4650008FB0400200B050020FFF7A6FB80
:10392000021E00D106E7C37881781B020B43D9E75A
:103930001800022A02D1FEF743FFF1E7FFF79AFBD6
:10394000EEE71800A988FEF73FFF021E00D1F1E65E
:103950001378C7E7FFF78CFBF7E76B88012B00D0E4
:10396000E8E6EA7DDB181343EB7529002FE76B8847
:10397000012B00D0DEE60222EB7D9343F4E7122216
:1039800004ABD218EB7D76B21380002E00DBD1E6BB
:103990000223A7E72A790F2A00D9CBE62B79A54A7B
:1039A000EB18DB7E1278934227D22422A2495A4395
:1039B0000B689B18002B00D1BCE620005969FFF76B
:1039C00049FB002800D03DE62B786022180010400B
:1039D000134200D0AEE6697828610A2912D00B297B
:1039E00015D0002900D0A5E6122204A812185BB257
:1039F00011808B4200DB9DE6CAE7934200D099E636
:103A00008E4BDAE7122204ABD2181070C1E6AB7805
:103A1000002B00D08EE6A8E72A79D1B2120700D594
:103A200088E60F220A405700C809ED192D18814871
:103A30002B352D780078944685421ED224277E4867
:103A40006F430568ED19002B1DD17D4F02227B7855
:103A50001800904301281BD0002B00D06AE62000FC
:103A6000FFF7BEFD122204ABD21876B21080002EF2
:103A700000DB5FE60223390035E7854200D1D3E061
:103A80001D1EE2D056E6002D00D153E669695FE6BF
:103A90007888002800D04DE6844500D14AE685426A
:103AA00000D147E62000012B0FD1FFF77BFD6969AC
:103AB0002000FFF7CFFA00233B613B003C331B782B
:103AC0003900DB0700D5BDE581E6FFF753FDEEE7E2
:103AD0000F2521795A4A0D402B00CE09002D3DD0EB
:103AE0006800101880192B300578524800788542FC
:103AF00008D2242750487D4300684019002804D18B
:103B00000DB0F0BD8542FBD14C480825F7007D4043
:103B100005275B00D3189B193B331E78BE43354302
:103B20001D702578002856D1D388A6687B3783423C
:103B300001D013789F43B94212D1002E00D081E505
:103B40003F4C2800210000F0B3FD2369B34200D1AF
:103B500078E5220003212800984773E52800D7E77D
:103B6000374C23787F2B0FD8A068002800D169E557
:103B7000A389E2899B1A9E4200D91E0031498842DE
:103B800002D0320002F012F9A268E3899219F31808
:103B9000A260E2889BB2E3819A4201D03F2E16D800
:103BA0002369002B07D1002239001300280000925E
:103BB000FFF72CFC46E50221220028009847011E51
:103BC000F1D1280000F012FE80212800B9E528007C
:103BD000FFF756FC36E5866962792800A368B0478E
:103BE00030E5174B1A7D002A00D12BE5D87D8007E0
:103BF000C00FFFF743FA25E5114B1B7D002B00D1C9
:103C000020E5FFF73CFA1DE56368002B00D119E5BC
:103C1000A068984716E50A4B9B7EDB0700D411E5A8
:103C20006068FFF722FA0DE5044D002B00D02DE768
:103C30000BE7C0469404002098040020D4650008D7
:103C4000E00400209C0400207047704770477047D4
:103C5000704770477047000010B5002801D0002061
:103C600010BDFFF711FA0400FFF716FA002CF6D08A
:103C70000028F4D1024B0130DB781840F0E7C04651
:103C80002C0500200300002010B583420ED10A4A03
:103C9000148F518FA3B2928E88B28C4207DB1B1A0D
:103CA0009BB2101C9A4200D9181C80B210BD510062
:103CB000091A5B18F4E7C0462C0500200300002019
:103CC00010B5834202D10248FEF756FF10BDC04630
:103CD000500500200300002010B5834202D10248A5
:103CE000FEF7D6FE10BDC0463805002003000020B8
:103CF00010B5834202D10248FEF783FE10BDC046D4
:103D0000380500201FB5BE22124C002120005200B1
:103D100002F014F8E1235B026360F8235B426381E5
:103D200000243933FF3301930B4B22002100009311
:103D3000029423000948FEF737FE80235B000193BD
:103D4000074B21000093012302941A000548FEF757
:103D50002BFE1FBD2C05002068060020500500200A
:103D600068050020380500200120704770B5002547
:103D7000044C012104482560FEF732FFE31DDD7786
:103D8000A57370BD2C05002044050020F7B54B79C4
:103D900007000E00022B01D00020FEBD8B79022B04
:103DA000FAD13B4B3B4DDB7F002B02D0AB7B002B92
:103DB000F2D12F70B3786B703478B3180093341944
:103DC000009B62789C4206D223780099E3189942BE
:103DD00001D3242A15D0052A09D121003800FFF784
:103DE000C9FA0028D8D0A378AB702378E418637898
:103DF000042B3AD163790A2B37D100222300019298
:103E00002DE01C00DCE700998B422DD29D18A942C1
:103E10002AD36B78052BBFD1EA78023B1340022BE3
:103E2000BAD129003800FFF7A5FA0028B4D06B7981
:103E300029791B020B43AA785B0516495B0DD00953
:103E4000012815D10B82402313480F738A734B82CC
:103E5000FEF7C2FE019B0133DBB201932B002179F7
:103E600001981A788142CED89C18A01B80B294E7A2
:103E7000481DC777C81DC27708480B854B85FEF7DC
:103E8000ABFE0748FEF732FE0028E3D184E7C046C8
:103E9000330500202C050020440500205C0500208F
:103EA00050050020F8B504000B00107811006022C6
:103EB00000250240202A17D1254F4A790E797878BB
:103EC0001202324390420FD14878203803280BD891
:103ED00000F0B4FD02131632012B07D10723200096
:103EE0001C4AFFF7FFFA01252800F8BD032BFAD181
:103EF00000201849FFF7ADFEF5E7012BF3D1EDE700
:103F0000012B03D12000FFF7ABFAECE7032BEAD13A
:103F10000126CC788B7824021C4331002500A14374
:103F20000D483540FC70FEF75BFE6208290000205A
:103F30003240FFF78DFED6E7012BE3D0032BD2D121
:103F40008B78C978002009021943FFF783FECAE77E
:103F50002C0500203005002044050020F0B51F008E
:103F60003B4B0E00DB7F3B4C87B08B420AD0A37BE0
:103F70008B4247D0A37800208B4201D183424DD1A0
:103F800007B0F0BDE16A002904D000233248BAB27C
:103F9000FEF70FFFA31DDB7F002B05D1E31DD97FAB
:103FA000631DD87FFFF71CFAE37AFF2B1DD002AD0B
:103FB00029002948FEF7CBFF2B89002B33D0EA6874
:103FC000013BD318002B10D0EA68E17A01926A68AD
:103FD000002094462A88013A6244B84205D01D78F0
:103FE0008D4226D10020FFF730FE228F638F9A4248
:103FF00002D00020FFF728FE1848FEF777FDA37BCC
:10400000B3420BD10020FFF721FE1548FEF7F9FC63
:10401000002803D139001248FEF7DAFCA378B34236
:1040200011D00120ACE72B88002BDED06A68013B61
:10403000C7E7019D9D4204D09C45D6D0013B01308D
:10404000CBE71300FBE70020FFF701FEE9E7C046DE
:10405000330500202C0500205C05002050050020C1
:1040600038050020F7B50F25C4090540A01C0190B4
:104070000800604000238446174A019ED8B2965D2E
:10408000002E06D056788E421FD11678AE421CD133
:10409000FEBD012906D1104F9E00BE196644B678B8
:1040A000002E12D11678FF2E01D0AE420DD15678D7
:1040B000FF2E08D1084A9B00D554D318012259700D
:1040C0001B199A70E4E78E42F4D001330432082BB6
:1040D000D3D10020DCE7C046AB06002007B56B4615
:1040E000DA1D991D00F078FC0300054A10881B18A2
:1040F0009BB213808022D200934200D901480EBDAA
:10410000A8060020FFFF00008022044B1206DA6799
:10411000BFF34F8FBFF36F8F7047C04604E100E0DD
:104120008022024B12061A607047C04600E100E090
:10413000F0B54289038905009B1A80891C1C9BB23B
:1041400089B0834200D9041C2E488B001B180493AD
:104150002D481B88002718430390C020C00003404F
:10416000029380230298A4B2DB00984202D1039B01
:104170005F06FF0F4B0005932449DB199B005E5A35
:104180008B196E680193002E34D00822002106A8F6
:1041900001F0D4FD022306AA137030001300019928
:1041A0002200FEF7F1FD6B89184AE3186B81059B2D
:1041B000A405DB199B009B185A88A40D920A920251
:1041C000224330245A80039B029A5C408023DB0008
:1041D0009A4201D10123EB730D4B1C40FFF794FF72
:1041E000049B1C80BFF34F8FBFF36F8FFFF798FFC7
:1041F00009B0F0BD29683300891801982200FEF744
:10420000F4FCD0E7005C00408080FFFF00600040CD
:10421000BF8FFFFFF8B543001D4A5B181B01D31881
:104220009D7B4001012905D1103029008018FFF73E
:104230007FFFF8BD174BAE00F618338816491218E9
:10424000164F194014890F439189A2B28A4200D9AE
:104250000C1CC0218022C900A4B2D2000B409342A2
:1042600004D122000021280000F0C8FB2200C02455
:10427000A401012128007C4000F0C0FBFFF744FFAF
:104280003480BFF34F8FBFF36F8FFFF749FFD0E745
:10429000CC060020005C00408FBFFFFF8080FFFF46
:1042A000F8B50024FF222500194E1A4B3480013442
:1042B0001A705A709D70DD700433082CF7D10021FC
:1042C0004027154B08001F80FFF7CCFE00218020FF
:1042D000FFF7C8FE114B38009F819D739F839D7728
:1042E000FFF7FCFE05003800FFF7F8FE0C4B22003C
:1042F0009D800C4D1880012100202F8800F07EFB4E
:10430000094B1F40094B7B402B8080233380F8BD35
:104310004C5C0040AB060020A8060020CC06002024
:1043200000600040005C00407070FFFF2022000031
:10433000064B002905D08022D98F92000A43DA87E4
:104340007047DA8F02490A40F9E7C046025C004034
:10435000FFFDFFFFF0B5C14E8FB0F38F02938023B6
:10436000029A9B001A4212D0BD4AD28F1A420ED036
:104370008022BC4B08A9F387BB4BD2001B880BA83B
:104380005B058A815B0D01210C93FEF7E7FE029B22
:104390005B050FD5B54BF387FFF782FF802308AA93
:1043A0009B0093810023012113740BA8FEF7D6FE16
:1043B0000FB0F0BD029BDB0412D50421A84B0BA863
:1043C000DA8F8A43DA87DA8F49188A43DA87A84B6B
:1043D00008AAF387C023DB0093810739FEF7BEFEEE
:1043E000029B1B0512D508229D4B0BA8D98F0A43AF
:1043F000DA870422D98F0A43DA879E4B08AAF3870B
:10440000A023DB0001219381FEF7A8FE029BDB05C0
:104410000FD599490B78012B07D110249048C28FF2
:10442000A243C287013B0B7001E0002BFAD1934BF2
:10443000F387F38F1BB2002B05DB029B5B04B7D520
:104440008F4BF387B4E70F22F38F1A408D4B970001
:10445000FF183B88019205936B4614229B5E002B4C
:104460002BDA8022059B1201134263D0019B864AFE
:10447000DB009A181488854AA4059B181888844B79
:10448000A40D09AD2200C01829000023FEF7CBFBC4
:104490003B88804A1340804A1343804A13403B8044
:1044A000082C41D1E02308AADB0093810CAB06CD98
:1044B00006C301212800FEF751FE8022059B13420E
:1044C000B7D03B887349C0240B40754980250B4306
:1044D0000F2193433B803B88E40019407148ED0075
:1044E0001C404A01AC4213D18418E57F002DA0D0B6
:1044F0000025E57701245B06DB0F5C40019B5B0038
:104500001B19694C9B001B191C88A40AA4021C805F
:1045100083185C8B1B8BA34200D190E01032019971
:104520008018FFF705FE84E708220121002000F033
:1045300065FAC2E73B88574A1340574A1343574A24
:1045400013400F223B803D88534B2B431A40C0231E
:10455000DB002B400693802306990392DB000122A7
:10456000994202D16B04DB0F5A40019B5B009B1800
:104570004D4A9B009A181488454AA4059B5AA40DDD
:104580009B18039A0793474B520199184868049067
:10459000002832D0082200210BA801F0CFFB022313
:1045A00008AA13730799220004980BABFEF701FCCD
:1045B000039A3C4B52019B1859899A89611889B218
:1045C0005981944202D31B8999421FD3019801213A
:1045D00000F014FA80220025039B324C5B010BA8EB
:1045E000E418120163890280039A01210271836039
:1045F0004571FEF7B3FDA5605FE74889D1582200F9
:104600000918049B0798FEF70EFBD1E78020069C53
:10461000C00084420AD05B1A191C9BB2934200D995
:10462000111C8AB20198012100F0E8F91F4B1A4AC7
:104630002B401343C022920153403B803DE7802230
:104640000BA81201028080228360002352420A4399
:10465000027101214371FEF781FDEAE6065C00402C
:10466000025C0040FFFDFFFF485C0040FFFBFFFFD6
:10467000FFEFFFFFFFF7FFFFAA060020FFFEFFFF8F
:10468000FFBFFFFF005C0040066000400460004088
:10469000006000408F8FFFFF8080FFFFFF7FFFFFE4
:1046A00080800000CC060020026000408FBFFFFF2A
:1046B0000B785B0607D14B78052B04D180228B78D1
:1046C0001343014A138070474C5C0040F7B5CD7826
:1046D0004B798E780A79AD071B02AD0F1343290081
:1046E00030000093FFF7BEFC234A83009B18019320
:1046F000224A1B880F2413408022344022430700A3
:104700001343022D04D00020032D31D1862500E073
:1047100080252D021D43009BF6095B055B0D1800EB
:104720000093FFF7DBFC01227B0072409B18144AC8
:104730009B0064009852A419124B009A24011B1983
:104740009A819F730C23012E00D1083B02249C40C8
:104750006C40012E0DD10C4B1C40FFF7D5FC019B8A
:104760001C80BFF34F8FBFF36F8FFFF7D9FC012081
:10477000FEBD70239C43F0E7005C00407070FFFFBB
:1047800000600040CC060020FF8FFFFF0F20084094
:1047900070B5C9094500064C6D182D0162516519A7
:1047A00000246C602B816C81FFF734FD012070BD0B
:1047B000CC06002007B50022130080210092FFF7ED
:1047C000E5FF07BD0F2070B5002608404500C90968
:1047D000054C6D182D012E5164196681626023818C
:1047E000FFF718FD012070BDCC0600200F22C8097C
:1047F00011404900114B091809015B1870B59D7BE8
:104800000F4BAD00ED182B880E4A012810D10E4930
:104810000B4013430422012494405C40FFF774FCD6
:104820002C80BFF34F8FBFF36F8FFFF779FC70BD04
:1048300006490B4013430C22EDE7C046CC0600208E
:10484000005C00408080FFFFBF8FFFFF8FBFFFFF36
:104850000F20CB09014049001F4AC918090152180D
:1048600070B5957B1D4AAD00AD182C881C4A1443C9
:10487000012B26D140221B490A431440C02280212B
:10488000D2002240C9008A4211D00C22012B00D153
:10489000083A2100D1400A0003210A40012A14D11C
:1048A0000B32012B00D1083A022393405C40FFF702
:1048B0002BFC2C80BFF34F8FBFF36F8FFFF730FCC3
:1048C00070BD80220849D201D6E7084A013B134057
:1048D000313B1C40EBE7C046CC060020005C0040AA
:1048E00080800000BF8F00008FBF000030D0FFFF2E
:1048F00010B5BFF34F8FBFF36F8FFFF711FC10BDE3
:1049000070B50400FFF700FC01220021FF20094BD5
:10491000094D960001327153043318705870997024
:10492000D970082AF5D12000FFF7E2FFC022034B1F
:104930001A8070BDAB060020005C0040A806002075
:1049400010B5FFF7E1FB10BD024A034B11880B4382
:1049500013807047585C00400080FFFF10B50400D2
:1049600000F016F80021084B9A1C5033D1871980AB
:10497000D18F064B0B43D387FFF792FC2000FFF744
:10498000E3FF012010BDC046005C004000DDFFFFDA
:1049900003220F4B82B0DA8700220092009AC72AC6
:1049A0000DD90221DA8F8A43DA8700230193019B14
:1049B000C72B08D90022074BDA8702B07047C046E0
:1049C000009A0132E9E7C046019B0133EEE7C04699
:1049D000025C0040065C004010B53E2808D91F303C
:1049E000430901242020DBB258430C70137010BD22
:1049F0000130430800240220F5E70000F7B56B46BC
:104A00009F1DDE1D04000D00100039003200FFF76D
:104A1000E3FF3A7833789B1A9B02D20313439BB28D
:104A2000002B01D180231B0264006419024AA400F8
:104A3000A4186380F7BDC0460060004002B4714610
:104A400049084900095C49008E4402BC7047C046D1
:104A500003B47146490840004900095E49008E448C
:104A600003BC704703B47146490840004900095A25
:104A700049008E4403BC7047002243088B4274D324
:104A800003098B425FD3030A8B4244D3030B8B424F
:104A900028D3030C8B420DD3FF22090212BA030C58
:104AA0008B4202D31212090265D0030B8B4219D339
:104AB00000E0090AC30B8B4201D3CB03C01A524159
:104AC000830B8B4201D38B03C01A5241430B8B42A1
:104AD00001D34B03C01A5241030B8B4201D30B038A
:104AE000C01A5241C30A8B4201D3CB02C01A5241B1
:104AF000830A8B4201D38B02C01A5241430A8B4274
:104B000001D34B02C01A5241030A8B4201D30B025C
:104B1000C01A5241CDD2C3098B4201D3CB01C01A76
:104B2000524183098B4201D38B01C01A5241430980
:104B30008B4201D34B01C01A524103098B4201D36E
:104B40000B01C01A5241C3088B4201D3CB00C01ADB
:104B5000524183088B4201D38B00C01A5241430853
:104B60008B4201D34B00C01A5241411A00D2014678
:104B7000524110467047FFE701B5002000F0F0F801
:104B800002BDC0460029F7D076E7704703460B43C5
:104B90007FD4002243088B4274D303098B425FD336
:104BA000030A8B4244D3030B8B4228D3030C8B4262
:104BB0000DD3FF22090212BA030C8B4202D3121248
:104BC000090265D0030B8B4219D300E0090AC30B1D
:104BD0008B4201D3CB03C01A5241830B8B4201D3CA
:104BE0008B03C01A5241430B8B4201D34B03C01AB3
:104BF0005241030B8B4201D30B03C01A5241C30A2B
:104C00008B4201D3CB02C01A5241830A8B4201D39B
:104C10008B02C01A5241430A8B4201D34B02C01A85
:104C20005241030A8B4201D30B02C01A5241CDD22A
:104C3000C3098B4201D3CB01C01A524183098B4275
:104C400001D38B01C01A524143098B4201D34B015E
:104C5000C01A524103098B4201D30B01C01A5241C1
:104C6000C3088B4201D3CB00C01A524183088B4248
:104C700001D38B00C01A524143088B4201D34B0031
:104C8000C01A5241411A00D20146524110467047A3
:104C90005DE0CA0F00D04942031000D340425340A8
:104CA00000229C4603098B422DD3030A8B4212D368
:104CB000FC22890112BA030A8B420CD3890192119A
:104CC0008B4208D3890192118B4204D389013AD0D7
:104CD000921100E08909C3098B4201D3CB01C01AAC
:104CE000524183098B4201D38B01C01A52414309BF
:104CF0008B4201D34B01C01A524103098B4201D3AD
:104D00000B01C01A5241C3088B4201D3CB00C01A19
:104D1000524183088B4201D38B00C01A5241D9D231
:104D200043088B4201D34B00C01A5241411A00D2B2
:104D30000146634652415B10104601D34042002BAE
:104D400000D54942704763465B1000D3404201B52D
:104D5000002000F005F802BD0029F8D016E77047E2
:104D60007047C046F0B5C64647027B0A9C464B02D8
:104D70005A0A904645004A002D0E120ECE0F00B57D
:104D80009909C40FBF09AB1AB4424BD0002B39DDCF
:104D9000002A00D177E0FF2D00D1C1E08022D204AB
:104DA00011431B2B00DCFFE0013F7A0100D4B1E08E
:104DB00001277F42BF01BA091600100000F010FF62
:104DC000330005388340854200DCD5E0B94F2D1A09
:104DD0001F405A0700D178E10F221340042B00D165
:104DE00073E104377B0100D46FE1681CFE2D00D015
:104DF0007DE0FF200022C0051043E407204380BC73
:104E0000B846F0BD002B46D0531B002D73D1002FA8
:104E100000D139E1012B00D17EE1FF2B00D156E119
:104E2000013B6EE0002B00DC85E0002A51D1002917
:104E300072D05A1E012B00D12CE1FF2B70D01B2AFF
:104E40004CDC130008002022D840D31A99400B00F4
:104E50005A1E93410343FF188023DB041F4200D1F5
:104E60002CE10135FF2DC4D0934A7908114001226D
:104E700017400F437A0700D08DE01F42B5D1FB08E1
:104E80009C462B002EE0002946D0012B67D0FF2B3B
:104E900046D0013B85E7FE206A1C104200D099E015
:104EA000002D00D0E6E0002F00D12FE1002919D01D
:104EB00080257A1AED042A4200D15AE13400CF1B32
:104EC00000D18FE001202F4212D1FB089C46002325
:104ED00008E0FF2D24D01B2B00DC9AE00537FB08EF
:104EE0009C462B0062465202520AD8B283E7C0B2F7
:104EF000BA01520A7FE7FF2A00D1E8E08020C0040F
:104F000007431B2B00DC88E04F1E3400150079019D
:104F100000D54DE72B000437FA089446FF2BE1D16A
:104F20006346002B00D145E18022D2031A4352028E
:104F3000FF20520A5FE7002B57D0531B002D78D17A
:104F4000002F00D1A1E05D1E012B00D1A2E0FF2BBC
:104F500000D1BDE01B2D00DDC0E02B0070E0791A10
:104F60004A0100D4B6E089018D09280000F038FE1E
:104F70002B000538834001252022401B0130121AE6
:104F80001F009340C7405A1E93411F432AD000255B
:104F90007B0700D108E10F233B40042B00D020E722
:104FA0007B0100D521E76AE708002022D840D31A08
:104FB00099400B005A1E93410343FF1A7B0100D511
:104FC000F8E67B0700D15AE70F233B40042B00D0C3
:104FD00007E754E77B1A1A005B0158D4002A00D077
:104FE000EAE600240020002205E7FE226B1C1A429C
:104FF00031D1002D77D1002F00D1A6E0002900D1BA
:10500000BCE07A18530100D4BAE092010120520AA0
:10501000F1E68022D204114314E738002024D8405E
:10502000E31A9F407B1E9F41074334001500CF1BAE
:10503000C4E7FF2A4CD01B2B50DC8020C004074360
:1050400038002025D840EB1A9F407B1E9F41074324
:1050500015007F1800E7FF2B00D1CAE67F187F08F4
:105060007A0700D190E00F223A40042A00D18BE069
:10507000043751E7002F5DD1002900D086E080225F
:105080000024FF20D203B6E634000F0044E73400CA
:10509000CA1B91E67B185A0100D47EE0064F5B08DC
:1050A0001F405A0758D00F221340042B54D002231C
:1050B000043731E7FFFFFFFBFFFFFF7D7B0704D0D5
:1050C0000F233B40042B00D08BE62B0024E7340059
:1050D000C44625E7CB089C46012303E70531CB08EE
:1050E0009C461300FEE6002FF2D0002936D0802324
:1050F000DB039C4502D3984500D2C4468022634618
:10510000D2031A435202FF20520A74E6002900D14A
:1051100067E73400C446E5E6CB1B5A0124D59B0162
:105120009C09200000F05CFD23000538834034001A
:10513000013521E7002911D08023DB039C45DDD315
:105140009845DBD23400C446D8E7002900D149E7AE
:10515000CB089C460023C5E6022590E680226346E4
:10516000D203FF201A4346E6DB089C4634000123A5
:10517000B8E6002A15D1002400203CE60023B1E661
:10518000D3089C460023ADE61D0078E68022434606
:10519000D2033400FF201A432DE6DB089C4601238E
:1051A000A0E6D20894469DE601207B0100D59EE64C
:1051B0003900CDE7FF201A001DE6C046F0B54F4686
:1051C0004646D6464502C0B5C30F470099460E1C59
:1051D0006D0A3F0E5AD0FF2F21D08023ED00DB0453
:1051E0001D43002398469A467F3F74027300640A69
:1051F0001B0EF60F002B1FD0FF2B42D08022002069
:10520000E400D20414437F3B4A46FF1A43467240EF
:105210000F2B00D99CE071499B00CB589F46002D75
:1052200059D108239846063B74029A467300640AD3
:105230001B0EF60F002BDFD1002C3BD101234A4679
:105240004146724019430E2918D8654889004158D3
:105250008F465346022B00D1B9E0032B6ED04A464D
:105260002C00012B40D100200024C0052043D20790
:105270001043E0BCBA46B146A846F0BDFF2000246A
:10528000F3E7002C20D10223FF3FD8E7002D05D102
:1052900004239846033B00279A46A6E7280000F01F
:1052A0009FFC7627431F9D4000237F4298469A46E5
:1052B0003F1A9AE7200000F093FC431F9C4076239E
:1052C0005B421B1A00209FE7032342461A43904685
:1052D0000320FC3398E70C239846093BFF279A46A6
:1052E00083E703282CD0320038007F30002847DDC8
:1052F000630704D00F232340042B00D00434230180
:1053000003D53800374B80301C40FE28B6DCA401A2
:10531000640AC0B2A9E780240022FF20E403A4E7C6
:105320008023DB031D4201D01C420BD08024E40308
:105330002C4364024A46FF20640A96E74E462C003E
:105340008023DB031C4364023200FF20640A8CE7E5
:105350006D01600185422ED21B230024013F0126EE
:10536000290064006D00002901DB854201D32D1A5C
:105370003443013B002BF3D16B1E9D412C43B3E71B
:1053800003001A3300DA6EE7012321001B1A9E374F
:10539000D940BC400B00611E8C412343590704D007
:1053A0000F211940042900D00433590113D49B0163
:1053B00000205C0A59E71A2301242D1ACFE7981E12
:1053C00043425841404232000024C0B24DE74A46B1
:1053D000FF20002449E70120002446E7F865000883
:1053E00038660008FFFFFFF7F0B54646D6464F4641
:1053F0004402C0B5C30F460098460D1C640A360E21
:1054000000D1CBE0FF2E6ED08023E400DB041C43F0
:10541000002399469A467F3E6F026B007F0A1B0E5F
:10542000ED0F002B6DD0FF2B00D1A6E07F3BF618CF
:105430004B460A2B00DD82E08023FF00DB041F4384
:1054400043466B4098464B460022022B0FDD4946EF
:1054500001238B40A621C9000B4200D06FE09021B0
:1054600089000B4200D0D3E08821194264D1200C7E
:105470002404240C21003B0C3F043F0C79435C4383
:1054800047435843E4190B0C1B199F4202D9802251
:105490005202801809041A04090C52189401611E62
:1054A0008C411B0C920E1B1814439B011C431B01C7
:1054B00000D5CDE030007F30002800DCAEE063078F
:1054C0000BD00F2332002340042B06D004342301D9
:1054D00003D580321000684B1C40FE2866DCA30117
:1054E0005B0AC0B21EE0002C00D08BE00823994676
:1054F000063B6F029A466B007F0A1B0EED0F002BD6
:1055000091D1002F61D14A4601231A4391460A2ABC
:1055100015DC43466B4098464B460122022B96DC35
:1055200000200023C00518434346DD072843E0BCA4
:10553000BA46B146A846F0BDA8463C00924653463E
:10554000022B33D0032B11D0012BE9D03000803057
:10555000721C002863DD6307B9D00F232340042B9E
:10556000B4D1B4E70F2A78D0A8463C008023DB03EF
:1055700023435B02FF205B0AD4E7FF36002F2FD1C5
:1055800002234A4613430A2BD9DC42466A4090461E
:105590004A46002A0AD09946022258E7002C08D130
:1055A00004239946033B00269A4635E7FF20002353
:1055B000B8E7200000F014FB7626431F9C40002330
:1055C000764299469A46361A26E7380000F008FBDC
:1055D0004B46361A763E0A2BB1DC053887402FE75A
:1055E00003234A461A4313000A2ABBDC42466A4098
:1055F000904601229A40882113000322194200D1CB
:1056000035E799E70C239946093BFF269A4603E7BD
:10561000002398468023FF20DB0383E7320003004A
:105620001A3300DA7CE79E320123210094401B1AD2
:10563000D940621E94410C43630704D00F232340DA
:10564000042B00D00434630111D50120002369E745
:10565000012362081C40144378E78023DB031C42CB
:1056600084D01F4282D1A846FF203B435AE7A301C2
:1056700000205B0A56E7C046FFFFFFF7F0B5C646BD
:1056800047027B0A4A0245009C46C40F530A480061
:10569000984600B52D0EBF09000ECE0F9209FF28C7
:1056A00000D171E001235E402B1AB4423CD0002BA4
:1056B00000DC9CE1002800D1A3E0FF2D00D18BE0AD
:1056C0008021C9040A431B2B00DCFBE0013F7B0166
:1056D00000D47BE001277F42BF01B9090E0008001A
:1056E00000F07EFA330005388340854200DCD2E0CA
:1056F000B44F2D1A1F405A0700D1F6E00F22134075
:10570000042B00D1F1E004377B0100D4EDE0681CEC
:10571000FE2D00D090E0FF200022C0051043E407DA
:10572000204380BCB846F0BD002B00DC77E10028A8
:105730006FD1002A4CD0591E012B00D146E1FF2B1E
:105740004AD01B296ADC0B0011002020D940C31A63
:105750009A40531E9A410A43BF188023DB041F421C
:1057600000D1BBE00135FF2DD5D0974A7908114013
:10577000012217400F437A0700D09AE01F42C6D19A
:10578000FB089C462B004DE02B00FF3B002A2ED14E
:1057900001214E40B44200D1B4E0002B50D0002D86
:1057A00000D0EAE0FF23002F00D1FAE0591E012BC0
:1057B00000D15CE1FF2B00D13DE11B2900DC22E19F
:1057C000571E340005007B0100D583E72B0004370A
:1057D000FA089446FF2B25D16346002B9BD08022EC
:1057E0006346D2031A435202FF20520A95E7B4429D
:1057F00000D1A4E0002B23D0002DD3D0C446340028
:10580000EDE7002AE4D0012B39D0FF2BE4D0013B97
:1058100059E7FF2DE0D01B2B00DCA6E00537FB0885
:105820009C462B0062465202520AD8B275E701200C
:105830003A007B0100D43FE1C0B2BA01520A6CE7E2
:10584000FE216B1C194252D1002D00D0ACE0002F7C
:1058500000D11AE1002A00D1F4E08021BB1AC9046A
:105860000B4200D13CE10124D71B3440002F46D02D
:1058700001200F42E1D1FB089C460023D2E7BF1A6A
:105880007A0100D4DAE0BD01A80900F0A9F9AB095A
:105890000538834001252022401B0130121A1F00C9
:1058A0009340C7405A1E93411F4328D000257B07D1
:1058B000BDD00F233B40042B00D024E77B0100D553
:1058C00025E75DE711002020D940C31A9A40531EF6
:1058D0009A410A43BF1A7B0100D5FDE67B0704D03D
:1058E0000F233B40042B00D00DE72B0070E7BB1AC1
:1058F00019005B0162D4002900D0EFE600240020EB
:1059000000220AE7002B1CD0002D00D003E7FF2364
:10591000002F47D0591E012B58D0FF2B00D18BE010
:105920001B2900DD90E00B0039002025D940EB1A3F
:105930009F407B1E9F410F430500BF180DE7002BC2
:1059400017D1FE216B1C19421BD1002D00D080E025
:10595000002F00D1AEE0002A74D0BA18530100D451
:10596000AAE092010120520AD7E68021C9040A4325
:10597000EAE6002DCBD0C44631E73400FF200022F8
:10598000CBE6FF2B00D1C6E6BA185208510705D066
:105990000F21171D1140042900D019E7D2089446A1
:1059A00040E73400170013E7002F75D1002A00D01C
:1059B0009DE080220024FF20D203AEE60124D11B0B
:1059C00034408BE6FFFFFFFBFFFFFF7DBB185A0152
:1059D00000D494E04D4A5B081A40590700D192E088
:1059E0000F210B40042B6ED00223171DF0E6002B75
:1059F00000D125E7411B0B00002D00D1D3E6802309
:105A0000DB041F43D9E63B002024CB40611A8F40C2
:105A1000791E8F411F4334000500D71B5BE7002B25
:105A20008FD0431B002D00D172E71B2B0CDC802193
:105A3000C9040F4378E73400C446CDE6FB089C4612
:105A40000123EFE60023EDE60532D3089C46030070
:105A5000E8E6002FF0D0002A37D08023DB039C45F6
:105A600000D2BCE6984500D3B9E6C446B7E6D31BDE
:105A70005A0130D59B019C09200000F0B1F82300A9
:105A8000053883403400012505E7002A18D0012499
:105A90000023C4463440C5E6002A16D08023DB0329
:105AA0009C4500D29BE6984500D398E60124C44665
:105AB000344094E6002A04D0D3089C460023B1E683
:105AC0000024002029E6023B68E780226346D203D7
:105AD000FF201A4321E6DB089C4634000123A1E69F
